:020000040800F2
:10000000B0C900204D01000869180008E11100087E
:1000100065180008CB020008253300080000000026
:100020000000000000000000000000004D24000857
:10003000D10C000800000000A11A0008892D00085A
:1000400067010008670100086701000867010008F0
:1000500067010008670100086701000867010008E0
:1000600067010008670100086701000867010008D0
:1000700067010008670100086701000867010008C0
:1000800067010008670100086701000867010008B0
:1000900025320008670100086701000867010008B1
:1000A0006701000867010008670100086701000890
:1000B0006701000867010008670100086701000880
:1000C0006701000867010008670100086701000870
:1000D00067010008252E0008670100086701000875
:1000E0006701000867010008473000086701000841
:1000F0006701000867010008670100086701000840
:10010000670100086701000867010008670100082F
:10011000670100086701000867010008670100081F
:10012000670100086701000867010008670100080F
:10013000DFF80CD000F06CF800480047095C0008BC
:10014000B0C9002080F30888704700000648804747
:1001500006480047FEE7FEE7FEE7FEE7FEE7FEE7AC
:10016000FEE7FEE7FEE7FEE78D2D000831010008FF
:100170002DE9F05F0546002092469B4688460646DC
:10018000814640241BE0284641464746224600F06F
:100190002FF853465A46C01A914110D311461846BB
:1001A000224600F016F82D1A67EB01084F4622464A
:1001B0000120002100F00DF817EB00094E41201E30
:1001C000A4F10104DFDC484631462A464346BDE837
:1001D000F09F202A04DB203A00FA02F10020704749
:1001E0009140C2F1200320FA03F319439040704775
:1001F000202A04DB203A21FA02F00021704721FA7C
:1002000002F3D040C2F120029140084319467047E2
:10021000064C074D06E0E06840F0010394E8070053
:1002200098471034AC42F6D3FFF786FFB468000855
:10023000D468000870B58C1810F8015B15F007033E
:1002400001D110F8013B2A1106D110F8012B03E06F
:1002500010F8016B01F8016B5B1EF9D12B0705D477
:100260000023521E0DD401F8013BFAE710F8013BC0
:10027000CB1A921C03E013F8015B01F8015B521EDC
:10028000F9D5A142D8D3002070BD10B5044624B1E1
:10029000012C07D0022C15D10AE01021012002F018
:1002A00097F910E04FF48051022002F039F90AE08A
:1002B0001021012002F08CF94FF48051022002F04D
:1002C0002FF900E000BF00BF10BD00BFFEE70146F0
:1002D000CAB20B1243EA02207047000010B5002496
:1002E00005E0A8480068005DA7490855641CA748B8
:1002F00000888442F5D3A4484068A5494860A248D4
:1003000080688860A14800881F280FD00220FFF76E
:10031000BCFF00209C490860487B1A22052102F09E
:100320001BFA0021012002F0F9F910BD9648C07BAC
:10033000282803D09448C07B2A2816D19248407CB4
:1003400001069148807C41EA00418F48C07C41EA27
:1003500000208D49097D08438E4908608A48C17D87
:10036000807D41EA00208C490860874800688B49FD
:1003700088426FD18448407B89490968884207D800
:100380008148807B012803DB7F48807B10280DDDBE
:100390000220FFF77AFF7C49487B2422052102F0E6
:1003A000DBF90021012002F0B9F9E8E07648C07BD2
:1003B00025285FD01BDC15286FD00EDC08286DD0F7
:1003C00006DC00285BD0032830D0042867D176E013
:1003D0000A286ED01228F9D12DE01A380A285ED2E8
:1003E000DFE800F0392EB17D33B1B1B1B1438A28D5
:1003F0006FD00EDC552867D006DC282844D02A2888
:100400004ED02F28E2D155E05A2829D08828DDD1B6
:1004100076E0A8286DD004DC8F286FD09E28D5D137
:1004200073E0AA287BD0AF28D0D182E05649487B20
:1004300001F0B8FE95E05449487B01F08BFD90E057
:100440005149487B01F0C2FE8BE04F49487B01F0E7
:10045000BDFE86E086E04C49487B01F0CBFD80E0A4
:100460004949487B01F0BCFD7BE04749487B01F0EE
:1004700055FE76E04449487B01F002FE71E04249B6
:10048000487B01F0ABFE6CE03F49487B42490A687B
:100490004049096801F0B8FD63E01BE024E052E048
:1004A0003949487B3C490A683A49096801F0D2FE5B
:1004B00057E02FE03449487B01F0ACFE51E032496F
:1004C000487B01F02FFD4CE02F49487B01F066FD91
:1004D00047E029E02C49487B01F060FD41E02A49D2
:1004E000487B01F05BFD3CE02749487B01F056FD6D
:1004F00037E02549487B01F051FD32E01EE00EE077
:100500002149487B01F04AFD2BE01F49487B01F05F
:1005100045FD26E01C49487B01F040FD21E01A49D9
:10052000487B01F03BFD1CE01749487B01F036FD9C
:1005300017E01549487B01F031FD12E01249487B74
:1005400001F02CFD0DE00220FFF79FFE0E49487BD5
:100550002022052102F000F90021012002F0DEF83E
:1005600000BF0CE00220FFF790FE0749487B2022E5
:10057000052102F0F1F80021012002F0CFF800BFC0
:10058000D3E60000400100205CC5002044010020AB
:100590007CC50020480100204C01002055534243F7
:1005A000A801002008B50020009022E197480088AB
:1005B00000F00F00964908700846007800287CD1AA
:1005C00094480068944908800846008800F030008C
:1005D000924908809048008800F440508E49088075
:1005E0008C4909684BF6BF7201EA020080F40050A2
:1005F00080F0200040F4004141F08001854A116004
:100600008248008800F0100090BB1046006848F651
:100610000F7108401146086000F0E4FD7D4909684B
:100620004BF6BF7201EA02007B49098801F4805150
:1006300009B180F480507849098801F4005109B16A
:1006400080F400507549098801F0100109B180F06B
:1006500010007249098801F0200109B180F02000E2
:1006600081B241F4004141F080016A4A116008BD45
:10067000FFE76848006880B20090BDF8000000F411
:100680000060B0B363480068C0F30E0048F68F7195
:1006900008406049086002F06FF85E4909684BF64F
:1006A000BF7201EA02005C49098801F4805109B176
:1006B00080F480505849098800E056E001F4005168
:1006C00009B180F400505549098801F0100109B1C1
:1006D00080F010005149098801F0200109B180F033
:1006E000200081B241F4004141F08001494A11608B
:1006F000BDE7FFE7BDF8000000F40040002878D017
:1007000044480068C0F30E0048F68F710840414924
:10071000086001F089F93F4909684BF6BF7201EAA8
:1007200002003D49098801F4805109B180F48050EC
:100730003949098801F4005109B180F40050374962
:10074000098801F0100109B180F0100033490988CF
:1007500001F0200109B180F0200081B241F4004194
:1007600041F080012B4A116081E7294800782C492B
:1007700001EB8000D0F8000C80B20090BDF80000C2
:1007800000F40040C0B12248007801EB8000D0F8AE
:10079000000CC0F30E0048F68F7108401C49097820
:1007A0001F4A02EB8101C1F8000C19490978491E62
:1007B0001C4A52F821008047BDF8000000F080007C
:1007C000B8B113480078164901EB8000D0F8000C4E
:1007D00048F60F7108400E490978114A02EB810171
:1007E000C1F8000C0A490978491E0F4A52F8210045
:1007F000804708484430006880B20449088000F40B
:10080000004000287FF4D2AE00BF30E76C0100202A
:100810005C000020005C004070000020720000209E
:10082000005000408C010020700100200B4A02EBB8
:100830008001D1F8001C01F4804171B102EB80010C
:10084000D1F8001C48F68F7211404CF2800211431F
:10085000024B03EB8002C2F8001C704700500040BE
:100860000B4A02EB8001D1F8001C01F0400171B18C
:1008700002EB8001D1F8001C48F68F72114048F25B
:10088000C0021143024B03EB8002C2F8001C704708
:1008900000500040084A02EB8001D1F8001C48F6E5
:1008A0008F62114048F280021143034B03EB800238
:1008B000C2F8001C70470000005000402DE9F047CE
:1008C0002848006800F110052E8826480068077A3D
:1008D000D6B9042F18D12448007801280FD100215F
:1008E0002248006880B2801C214A42F81010302053
:1008F0002049088000BF00201B49087003E007273B
:1009000010201C49088027E0AC88A64201D80420AA
:1009100000E002200746B44200D93446A0B2A968DC
:1009200088478046002000F023FC8146A2B2494659
:10093000404602F0F9FCA1B2002001F03BFE2888FD
:10094000001B28806888204468803020094908807E
:1009500000020949088000BF024909680F72BDE81A
:10096000F0870000600000205A000020505C00402A
:100970000060004072000020700000202DE9F0416E
:100980002848006800F110042688A068C0B1BEB1F4
:10099000A588B54200D93546A8B2A1688847074660
:1009A0002088401B2080608828446080002000F060
:1009B000B1FB8046AAB24146384601F05DF800BF5F
:1009C000208850B14FF44050174908800021084654
:1009D00001F0F0FD3020154908802088A188884268
:1009E00004DB03200F490968087218E020880028FA
:1009F00004DD05200B490968087210E0208870B9F1
:100A0000062008490968087200210948006880B278
:100A1000801C084A42F81010302004490880BDE8C4
:100A2000F0810000600000207000002072000020B3
:100A3000505C0040006000402DE9F84F9B48006882
:100A400045780027BA46062D1BD1984800680078E3
:100A500000F07F00002813D19449096888780128A4
:100A600003D193490968CF690AE0022803D190496C
:100A700009680F6A04E0032802D18D4909684F6AAA
:100A800094E0002D64D189480068408800285FD137
:100A900086480068C08802285AD1844800680079D6
:100AA000002855D181480068007800F07F0028B9FF
:100AB0007E480068808808B97E4F77E07B480068F0
:100AC000007800F07F00012810D178490968487942
:100AD000774909688A6900219047002866D17348E0
:100AE0000068807A002861D0724F5FE06F4800682C
:100AF000007800F07F00022858D16C4800684079E7
:100B000000F00F0669480068407900F070096748F6
:100B10000068407900F0800038B1674901EB860039
:100B2000D0F8000C00F0300806E0634901EB8600C5
:100B3000D0F8000C00F4405860480078B04235D935
:100B4000B9F1000F32D1B8F1000F2FD0594F2DE07D
:100B5000082D07D155480068007800F07F0028BBB9
:100B6000574F23E00A2D21D150480068007800F04B
:100B70007F0001281AD14D480068807AB0B14B48F7
:100B80000068408890B949480068007970B94748C2
:100B90000068C088012809D1444909684879444956
:100BA00009688A690021904700B9464F57B13F480C
:100BB0000068A0F812A03D48006887610020B8478F
:100BC00000240FE0394A12685078394A12681169D6
:100BD00088470446032C05D1092034490968087266
:100BE000BDE8F88F31480068008A4FF6FF718842EF
:100BF00004D109202D4909680872F1E7022C03D0BD
:100C00002A480068008A20B9082028490968087223
:100C1000E6E726480068007800F08000E0B323484B
:100C20000068C088009021480068008A00998842C6
:100C300004D91E4900980968088223E01B4800680F
:100C4000008A1A490968C98888421BDA174800686F
:100C5000008A1749096891F82C10884203DA0020AD
:100C6000194908700EE011480068008A10490968A7
:100C700091F82C1090FBF1F201FB120010B9012049
:100C8000114908700A48006890F82C10074800685D
:100C90008182FFF713FE07E0FFE70320034909689D
:100CA000087200030949088000BF99E7600000202E
:100CB00064000020192A000800500040A90100200B
:100CC0009D290008ED2900085A000020700000202E
:100CD000704710B500F0FEFC10BD10B500F04EFDE1
:100CE00010BD000001490860704700001404014075
:100CF000002123498279002A3AD00A461268036803
:100D00009A430B461A600A1D126803689A430B1D2A
:100D10001A60027911440A6803681A430A60184A83
:100D20000832126803689A43154B08331A601A1D7B
:100D3000126803689A43124B0C331A604279102AE6
:100D40000ED11A1F126803681A430D4B08331A603C
:100D50001A1D126803681A43094B0C331A600DE020
:100D60000749427911440A6803681A430A6005E09A
:100D7000027911440A6803689A430A6070470000C8
:100D80000004014010B503A002F002FD0320084951
:100D9000086010BD75736220656E746572206C6F9B
:100DA0007720706F776572206D6F64650D0A0000A3
:100DB0003802002030B5044604254FF4302000F0FE
:100DC0006FF80546042D17D10C48006940F0020069
:100DD0000A49086108464461006940F04000086122
:100DE0004FF4302000F05CF805460448006941F6F5
:100DF000FD71084001490861284630BD00200240CD
:100E000004200B49C96801F0010109B101200EE07D
:100E10000749C96801F0040109B1022007E004494B
:100E2000C96801F0100109B1032000E004207047F7
:100E3000002002400348006940F080000149086139
:100E4000704700000020024070B504460D4604269D
:100E5000F00200F025F80646042E11D10948006979
:100E600040F00100074908612580F00200F018F801
:100E700006460448006941F6FE71084001490861D0
:100E8000304670BD002002400248034948600348D4
:100E9000486070472301674500200240AB89EFCDD1
:100EA00000B502460423FFF7ABFF034603E0FFF75C
:100EB000A7FF0346521E012B01D1002AF7D102B928
:100EC0000523184600BD30B504460B46002507E053
:100ED000204600F008F823F8020BA41C681C85B219
:100EE0009542F5DB30BD0146088870472DE9F04793
:100EF000804689461646C8F3CF27C8F3490ACAF583
:100F00008064FFF7C1FFA64200DC344600BF4FF00B
:100F1000006101EBC7204A142849FFF7D4FF0025E0
:100F20000BE00AEB0500254931F810004FF6FF7180
:100F3000884200D003E0681C85B2A542F1DB00BF07
:100F4000A5421BDA4FF0006101EBC720FFF732FF2B
:100F5000002508E039F815000AEB0501174A22F8C8
:100F60001100681C85B2A542F4DB4FF0006101EB73
:100F7000C7204A14114900F023F804E022464946EC
:100F8000404600F01DF8B44200D111E0781C87B251
:100F90004FF0000A09EB440908EB4408301B86B205
:100FA000B6F5806F02DD4FF48064B0E73446AEE7FB
:100FB00000BFFFF73FFFBDE8F08700007012002080
:100FC0002DE9F04105460E461746002407E036F8A5
:100FD00014102846FFF738FFAD1C601C84B2BC42D9
:100FE000F5DBBDE8F0812DE9F04102460025002641
:100FF000002000230024002791F803C00CF00F0507
:1010000091F803C00CF0100CBCF1000F03D091F864
:1010100002C04CEA050591F800C0BCF1000F31D0C8
:10102000146800202BE04FF0010C0CFA00F3B1F82B
:1010300000C00CEA03069E4220D183004FF00F0C43
:101040000CFA03F7BC4305FA03FC4CEA040491F8DC
:1010500003C0BCF1280F06D14FF0010C0CFA00FCC4
:10106000C2F814C00AE091F803C0BCF1480F05D1E2
:101070004FF0010C0CFA00FCC2F810C0401C08280C
:10108000D1D31460B1F800C0BCF1FF0F34DD546857
:1010900000202EE000F1080C4FF0010808FA0CF3D4
:1010A000B1F800C00CEA03069E4221D183004FF044
:1010B0000F0C0CFA03F7BC4305FA03FC4CEA0404DA
:1010C00091F803C0BCF1280F05D100F1080C08FA13
:1010D0000CF8C2F8148091F803C0BCF1480F07D196
:1010E00000F1080C4FF0010808FA0CF8C2F8108063
:1010F000401C0828CED35460BDE8F0810246002091
:1011000093680B400BB1012000E0002070470161A3
:101110007047000001460548006880B200EBC1003E
:10112000001D034A32F8100080B27047505C004046
:101130000060004001460648006880B200EBC10034
:10114000801D044A32F81000C0F309007047000007
:10115000505C0040006000400146044A02EB810000
:10116000D0F8000C00F440507047000000500040E0
:1011700001460548006880B200EBC100034A32F81E
:10118000100080B270470000505C004000600040DA
:10119000014629B90120034A1268108200207047D5
:1011A0000148FCE760000020A801002070B50A4853
:1011B0000468001D0568001D0668344454B1082207
:1011C0000649204600F046F804220449103128461A
:1011D00000F040F870BD0000E8F7FF1F520100204A
:1011E00000BFFEE710B518480068047A022C01D051
:1011F000042C05D1FFF762FB13480068047A1CE059
:10120000062C19D110480068407805280ED10E48E8
:101210000068007800F07F0040B90B490968C87881
:1012200001F01EF909490968086A804708490968F8
:1012300088688047082400E00824034909680C7284
:1012400000F030FC10BD0000600000206C000020A9
:101250006400002030B50B46002100BF16E00A24D0
:10126000B4EB107F05D9302404EB107403F811405F
:1012700005E0412404EB10740A3C03F8114000011E
:1012800000254C00641C1D554C1CE1B29142E6DB6C
:1012900030BD000008B50121442000F057FC1C209F
:1012A000ADF8000048208DF8030069460648FFF7B6
:1012B0009AFE0120ADF8000028208DF80300694651
:1012C0000248FFF790FE08BD0018014000080140E9
:1012D00010B5044614B101202C4908702B48007841
:1012E000002837D010212A48FFF708FF78B10821DD
:1012F0002748FFF703FF50B104212548FFF7FEFE02
:1013000028B101212348FFF7F9FE012822D10A2044
:1013100002F044FE00201D49087010211C48FFF710
:10132000EDFE08B9012010BD08211948FFF7E6FEBF
:1013300008B90220F7E704211548FFF7DFFE08B9D6
:101340000320F0E701211348FFF7D8FE01281BD145
:101350000420E8E710210E48FFF7D0FE012813D142
:1013600008210B48FFF7CAFE01280DD104210848C7
:10137000FFF7C4FE012807D101210648FFF7BEFE92
:1013800010B90120014908700020CCE719000020A5
:10139000001801400008014010B5074C07A002F0FA
:1013A000F7F9A07A18B105200A49086002E0012087
:1013B0000849086010BD000040C500206C656176DA
:1013C00065206C6F7720706F776572206D6F646534
:1013D0000D0A000038020020012001490860704712
:1013E0009401234200200149086070479401234280
:1013F000014611B1012904D101E00020704700200D
:10140000FCE70120FAE72DE9F047064614461D46A1
:10141000DDE9088916B1012E08D106E000274A4609
:101420002146404601F0EEFF03E002E00120BDE866
:10143000F08700BF0FB10120F9E70020F7E72DE9A1
:10144000F047064614461D46DDE9088916B1012E0F
:1014500008D106E000274A462146404602F01AF825
:1014600003E002E00120BDE8F08700BF0FB10120DA
:10147000F9E70020F7E7000070B50546002414489E
:101480000068007800F07F00212810D1FE2D0ED1D9
:101490000F480068408850B90D480068808830B90E
:1014A0000B480068C088012801D10A4C01E00220E5
:1014B00070BD0CB90220FBE705480068846100217B
:1014C0000348006841820020A0470020F0E70000A8
:1014D000600000209111000810B504460249204622
:1014E00001F072FA10BD00000802002010B5044699
:1014F0000249204601F068FA10BD000000020020F9
:1015000070B5054606480068C478052C01DD00204A
:1015100070BD044800EBC401284601F055FAF7E716
:1015200060000020100200200246002901DD022098
:101530007047002A01DD0220FAE70020F8E70000EA
:1015400010B5044611480068007800F07F0021289B
:101550001AD1FF2C18D10D4800684088A0B90B485B
:101560000068808880B909480068C08860B9012097
:10157000FFF776F90220FFF759F905480549086099
:1015800000200549087010BD0220FCE76000002023
:10159000555342435CC500203C01002010B500209B
:1015A000324988723248C07932490968487200204D
:1015B00000F04EFF4FF40071002001F029F82021C7
:1015C000002001F005F81821002000F071FF2A48E2
:1015D00090F82C10002000F07DFF5821002000F032
:1015E000D9FF0020FFF756F9002000F0B9FF0021D5
:1015F000012001F00DF89821012000F0CBFF2021FF
:10160000012000F0E5FF0021012000F089FF00210A
:10161000022000F0FDFFD821022000F049FF16480B
:1016200090F82C10022000F055FF4FF4405102209A
:1016300000F076FF0021022000F0CAFF0E4890F86B
:101640002C10002000F046FF002000F089FF002051
:1016500000F006FF012009490860094809490860AF
:1016600000200949087001F0E1FD10BD40C50020CF
:10167000FA67000860000020AC010020380200205A
:10168000555342435CC500203C0100207047704721
:1016900010B5FFF78BFD002005490968887200F03E
:1016A00025FA01F0FFFD00200249086010BD00008E
:1016B000600000203802002010B50448006804498A
:1016C000884202D00220FEF7E0FD10BD5CC500207C
:1016D0005553424310B52448007840F01000224989
:1016E00008702248007802281BD003282ED0042836
:1016F00002D0052834D100E000BF00201B4908704B
:101700004FF44051022000F00BFF0220FFF724FDB0
:10171000B0F5805F04D14FF44051022000F000FF8B
:101720001FE01348C07B28280ED10F48007840F0F6
:1017300002000D4908700E49487B0E490A680E499F
:10174000096800F061FC00BF00BF0AE00121002031
:1017500000F0E4FF4FF44051022000F0E1FE00E011
:1017600000BF00BF10BD00009D0000203C01002014
:101770005CC500204C0100204801002010B5234822
:10178000007840F01000214908702148C47B2148AE
:101790000168022001F098FD1F4908801F48007869
:1017A00010B1012822D102E0FEF798FD2CE02A2C8E
:1017B0000ED11648007840F0010014490870144911
:1017C000487B17490A681749096800F043FD1BE088
:1017D0000120FEF75AFD0E49487B2422052100F026
:1017E000BBFF0021022000F099FF0DE00220FEF770
:1017F0004CFD0749487B2422052100F0ADFF002164
:10180000022000F08BFF00BF00BF10BD9D00002034
:101810005CC5002040010020440100203C01002064
:101820004C0100204801002010B508480068807A6B
:1018300058B10520064908600120FFF711F8022081
:10184000FEF7F4FF00200349087010BD600000207F
:10185000380200203C010020042001490860704744
:101860003802002000BFFEE77047704770B50021C6
:1018700000230F22C47804B3154C246804F4E064F8
:10188000C4F5E064210AC1F10403CA40447804FAB3
:1018900003F184781440214309010E4C0678A155C8
:1018A000047804F01F050124AC4005786D11AD00EB
:1018B00005F1E025C5F8004109E0047804F01F05B2
:1018C0000124AC40044D0678761145F8264070BDE1
:1018D0000CED00E000E400E080E100E0024901439B
:1018E000024A1160704700000000FA050CED00E0AC
:1018F00070B502264748006844784648006800787A
:1019000000F07F00002844D1092C03D101F004F934
:1019100006465FE0052C14D13E480068C0787F2859
:101920000BDC3C480068807838B93A480068808809
:1019300018B938480068807A08B1082565E00026A3
:1019400048E0032C0ED133480068C078012807D145
:1019500030480068808818B901F002F9064639E07D
:10196000022637E0012C35D12A480068C0780128CA
:101970000DD128480068808848B926480068407A18
:1019800000F0200018B100F053FF064622E00226C6
:1019900020E020480068007800F07F00012805D191
:1019A0000B2C17D101F058F9064613E019480068CE
:1019B000007800F07F0002280BD1012C03D100F049
:1019C00037FF064606E0032C04D101F0DDF8064699
:1019D00000E002264EB1E0B20F4A12685169884712
:1019E0000646032E01D109250FE00EB108250CE0B3
:1019F000062500210948006880B2801C084A42F888
:101A0000101030200749088000BF024909680D7294
:101A100070BD00006000002064000020505C0040A9
:101A2000006000407200002010B511480068047A80
:101A3000022C01D0042C01D1082412E0032C01D087
:101A4000052C05D1FEF79AFF09480068047A08E0E2
:101A5000072C05D107490968C8688047082400E0B9
:101A60000824034909680C7200F01CF810BD00003E
:101A70006000002064000020F0B5561C7510074E71
:101A800006EB41042B4605E034F8047B20F8017B8B
:101A9000401C5B1E002BF7D1F0BD00000060004031
:101AA0007047000010B50D4890F82C10002000F091
:101AB00011FD0B480068007A082805D14002094949
:101AC000088010200849088005480068007A092825
:101AD00001D1012010BD0020FCE70000AC01002076
:101AE00060000020700000207200002010B501206E
:101AF00001F0B0FA01240B48046000200A49088074
:101B000008460088074908600020091D08604FF456
:101B1000E050054908800846008802490860002016
:101B200010BD0000405C00406A00002029B1064A58
:101B3000D2690243044BDA6104E0034AD26982436A
:101B4000014BDA61704700000010024029B1064ADB
:101B500092690243044B9A6104E0034A926982430A
:101B6000014B9A61704700000010024030B500211F
:101B70000022002400232D4D6D6805F00C0121B1D9
:101B8000042905D0082923D105E0294D056022E06C
:101B9000274D05601FE0254D6D6805F47012234D3B
:101BA0006D6805F48034022505EB92421CB9214D85
:101BB000554305600BE01D4D6D6805F400351DB102
:101BC0001C4D5543056002E0194D5543056002E088
:101BD000174D056000BF00BF144D6D6805F0F001A2
:101BE0000909154D6B5C0568DD4045600F4D6D685A
:101BF00005F4E061090A104D6B5C4568DD408560C5
:101C00000A4D6D6805F46051C90A0B4D6B5C45685F
:101C1000DD40C560054D6D6805F44041890B074DF9
:101C20006B5CC568B5FBF3F5056130BD0010024083
:101C300000127A0000093D00260000203600002036
:101C40000149086070470000D80042422DE9FC417C
:101C500004460D4616464948007890B9484850F861
:101C60002400A5FB0010474AC2E90010444850F880
:101C70002400A6FB0010444AC2E9001001203F499D
:101C800008703E48007801285CD14048006820BBBD
:101C90003B4830F8240080B23D490968CDE9001086
:101CA00038480CC82046FFF7AEFBC7B22FB1394801
:101CB000007840F008003749087040223448016835
:101CC000812001F018FB2E4850F8240040382F499D
:101CD000086040203049086012E02D4800682E4A14
:101CE000126881184022812001F005FB2748006816
:101CF0004038264908602848006840302649086076
:101D00004021012000F056FC3021012000F060FC51
:101D10001C48D0E9003040229A1840F100001949CF
:101D2000C1E900201848D0E90010403960F10000F6
:101D3000154AC2E900101948806840381749886080
:101D4000FFF750FB1048D0E90010002359405840DD
:101D5000014310D100200D4908600F49086000219F
:101D6000084A1160516003200D49087000200349A2
:101D70000870FFF731FBBDE8FC8100009C000020EB
:101D800080000020A0000020A80000208800002083
:101D9000980000209D0000208C0000207CC50020C1
:101DA0003C01002070B50546072D01D02E48057076
:101DB0002D48007808284ED2DFE800F004111A20E0
:101DC0002B384E4F2948006828B900F053F80620F8
:101DD0002549087002E005202349087041E000F021
:101DE00049F804202049087001202049086038E0A3
:101DF00002201D4948700320087032E01A484078DC
:101E0000401E194948700846407808B904200870F7
:101E100027E01748006884B244F0100414480460B6
:101E20000520114908700A2048701AE00E484078D1
:101E3000401E0D4948700846407858B90C48006863
:101E400084B224F010040A480460062008700020C0
:101E50000649086005E000BF00BF0620024908707F
:101E600000BF00BF70BD00003D0200204002002006
:101E7000405C004010B50748006884B224F00404B8
:101E800004480460FFF788FA4FF43F4001490860B6
:101E900010BD0000405C00402DE9F04104460D46B5
:101EA00017461E46B8191C4951F82410884213D908
:101EB0002A2D02D10220FEF7E8F90020FEF7E5F90D
:101EC00021220521204600F047FC0021012000F0DE
:101ED00025FC0020BDE8F08110488168104850F8CA
:101EE00024007043814214D02A2D03D10220FEF732
:101EF000CCF902E00020FEF7C8F90849487B24220B
:101F0000052100F029FC0021012000F007FC002041
:101F1000E0E70120DEE70000840000205CC500202F
:101F20008000002010B504462046FFF761FA68B132
:101F30000749487B3A22022100F00EFC01210846A5
:101F400000F0ECFB0020FEF7A0F910BD00BFFCE79D
:101F50005CC5002070B506460C48007C00F001000E
:101F600010B10B4C05250BE00EB90A4C00E00A4CF1
:101F70000648C07C242802DC0448C57C00E02425F7
:101F80002946204600F032FF70BD00005CC50020ED
:101F9000C0000020C5000020E700002010B5044666
:101FA0000E48806818B90020FEF76FF90BE00B4867
:101FB000007B00F0800018B10020FEF766F902E017
:101FC0000220FEF762F90549487B2022052100F036
:101FD000C3FB0021012000F0A1FB10BD5CC5002067
:101FE00010B504460821024800F000FF10BD0000B3
:101FF0000C01002010B504460421024800F0F6FE52
:1020000010BD00000801002070B506460C461546BC
:102010001948007820BB1949487B2B4622462821C5
:10202000FFF73AFF00B970BD1448007B00F0800054
:1020300040B10220104908702A4621463046FFF779
:1020400005FE0CE00220FEF720F90C49487B242213
:10205000052100F081FB0121084600F05FFBE2E76B
:1020600005480078022804D12A4621463046FFF769
:10207000EDFD00BFD7E700003C0100205CC500205B
:1020800010B504462046FFF7B3F968B11F49487BF5
:102090003A22022100F060FB0121084600F03EFBDD
:1020A0000020FEF7F2F810BD194850F82400401E39
:1020B000000E18490870164850F82400401E000C05
:1020C0004870134830F82400401E000A88701048F9
:1020D00010F82400401EC8700F4850F82400000E6D
:1020E00008710D4850F82400000C48710A4830F877
:1020F0002400000A8871084810F82400C8710821DB
:10210000044800F073FE00BFCDE700005CC500206E
:1021100084000020260100208000002010B5044625
:102120002046FFF765F968B11A49487B3A22022137
:1021300000F012FB0121084600F0F0FA0020FEF743
:10214000A4F810BD144850F82400000E134908717B
:10215000114850F82400000C48710F4830F8240052
:10216000000A88710C4810F82400C8710C4850F817
:102170002400000C48720A4830F82400000A8872D3
:10218000074810F82400C8720C21044800F02EFE05
:1021900000BFD6E75CC50020840000202E0100208F
:1021A0008000002070B505460648C07C122802DC7D
:1021B0000448C47C00E012242146034800F016FEC7
:1021C00070BD00005CC500201401002010B504465D
:1021D0000121002000F0A2FA10BD000010B5044655
:1021E0002046FFF705F968B10949487B3A220221E8
:1021F00000F0B2FA0121084600F090FA0020FEF744
:1022000044F810BD0121002000F088FA00BFF8E773
:102210005CC5002010B504460D48806848B90C48DC
:10222000007C00F0040020B90121002000F076FAC3
:102230000CE00220FEF729F80549487B24220521FD
:1022400000F08AFA0021012000F068FA10BD0000B9
:102250005CC5002070B506460C4615461948007846
:1022600020BB1949487B2B4622462A21FFF714FE42
:1022700000B970BD1448007B00F0800040B9012017
:10228000104908704FF44051022000F049F90CE069
:102290000020FDF7FAFF0C49487B2422052100F0BD
:1022A0005BFA0021012000F039FAE2E705480078E6
:1022B000012804D12A462146304601F0A5F900BF85
:1022C000D7E700003C0100205CC5002000B587B0C6
:1022D00001210820FFF73AFC01218803FFF726FCC3
:1022E0004FF46040ADF8180018208DF81B00032053
:1022F0008DF81A0006A91848FEF775FE4FF46041E4
:102300001548FEF704FF0020ADF804004FF482707A
:10231000ADF806000020ADF808000220ADF80A0074
:102320000120ADF80C004002ADF80E003820ADF8E9
:1023300010000020ADF812000720ADF8140001A92C
:10234000064800F065F80121044800F047F8FF2036
:1023500000F006F807B000BD000C01400038004056
:1023600070B50546002405E0601CC4B2C82C01DD30
:10237000002070BD02210E4800F03CF80028F3D088
:1023800029460B4800F042F8002405E0601CC4B266
:10239000C82C01DD0020ECE70121054800F02AF8F7
:1023A0000028F3D0024800F02EF8C0B2E1E70000A8
:1023B0000038004010B50446074800884FF6C77142
:1023C000084005490880084600882043088001210C
:1023D000014800F003F810BD0038004021B1028828
:1023E00042F04002028004E002884FF6BF731A40B8
:1023F000028070470246002013890B400BB1012078
:1024000000E000207047014688897047818170474D
:1024100010B50022028802F441520B884C882343F5
:102420008C882343CC8823430C8923434C89234342
:102430008C892343CC8923431A430280838B4FF238
:10244000FF74234083830B8A038210BD7047000012
:102450004FF6F8710140014A11607047505C00402E
:1024600030B501460F4B1A78002014E003060E4CDD
:1024700004EB9353D3F8003C48F68F74234048F2A2
:1024800080042343C4B223430406074D05EB945450
:10249000C4F8003C401C9042E8D341F08003034C58
:1024A000236030BDA9010020005000404C5C00407A
:1024B00010B54A105300054A126892B202EBC002EE
:1024C000121D034C44F8123010BD0000505C004057
:1024D0000060004010B502460F48006880B200EB73
:1024E000C200801D0D4C04EB40033E290BDD48115A
:1024F00001F01F040CB9441EA0B24FF4004444EA9A
:1025000080241C6007E0481001F001040CB1441C59
:10251000A0B284021C6010BD505C0040006000400E
:1025200030B50E4C04EB8003D3F8003C4BF68F74AF
:1025300003EA040201F480530BB182F4805201F4E7
:1025400000530BB182F4005242F4004343F0800385
:10255000024D05EB8004C4F8003C30BD0050004043
:1025600010B50B4B03EB8002D2F8002C4BF68F73A7
:1025700002EA030181F4805181F4005141F40042E8
:1025800042F08002024C04EB8003C3F8002C10BD23
:102590000050004010B54A105200044B1B689BB21B
:1025A00003EBC003024C44F8132010BD505C004004
:1025B00000600040044A126892B202EBC002921C12
:1025C000024B43F812107047505C0040006000401E
:1025D00030B50E4C04EB8003D3F8003C48F6BF74D2
:1025E00003EA040201F010030BB182F0100201F0C3
:1025F00020030BB182F0200242F4004343F0800339
:10260000024D05EB8004C4F8003C30BD0050004092
:1026100010B5074B03EB8002D2F8002C48F68F135D
:102620001A400A43024C04EB8003C3F8002C10BD8F
:102630000050004010B500F001F810BD0CB50020AE
:10264000019000903348006840F4803031490860C0
:1026500000BF3048006800F4003000900198401C32
:102660000190009818B90198B0F5A06FF1D12948F0
:10267000006800F4003010B10120009001E000205B
:1026800000900098012843D12348006840F01000D2
:10269000214908600846006820F0030008600846E9
:1026A000006840F0020008601A4840681949486014
:1026B0000846406848600846406840F480604860CA
:1026C0000846406820F47C1048600846406840F4A2
:1026D000E81048600846006840F08070086000BF5D
:1026E0000C48006800F000700028F9D009484068E4
:1026F00020F00300074948600846406840F00200A7
:10270000486000BF0348406800F00C000828F9D179
:102710000CBD0000001002400020024070B50546CC
:102720000C460A480A490860084605730D228120B4
:1027300000F0E1FD0520074908702CB10420087065
:1027400030210120FFF744FF70BD00005553425374
:102750007CC500203C010020014B99701A73704722
:102760001401002010B50020FFF76AFA0121C80506
:10277000FFF7DCF910BD000038B5012429480068D6
:1027800080B2001D284931F8100080B201EB4000F2
:10279000009026480068007A092832D00098007816
:1027A0002249096808700098401C00900098007841
:1027B0001E49096848700098401C0090009800EB82
:1027C00044000090009931F8020B0091FDF77FFD65
:1027D000164909684880009800EB44000090009971
:1027E00031F8020B0091FDF772FD104909688880ED
:1027F000009800EB44000090009800880B4909689D
:10280000C880012009490968087208480068C08822
:1028100010B9FFF76DF801E0FEF70EF9FFF742F986
:1028200038BD0000505C00400060004060000020A7
:102830002DE9F04754480068007800F07F08B8F1AF
:10284000000F0AD150480068407A00F0DF004E497E
:10285000096848720020BDE8F087B8F1020F7CD10A
:1028600049480068408818B947480068007908B1AD
:102870000220F0E7DFF8149143480068477927F019
:1028800080052C4640480068407900F0800038B14F
:102890003F4901EB8400D0F8000C00F0300606E060
:1028A0003B4901EB8400D0F8000C00F4405699F845
:1028B0000000A84204D91EB133480068807A08B9E4
:1028C0000220C8E707F0800080B1314901EB8400A5
:1028D000D0F8000C00F0300010284BD1E0B2FDF72A
:1028E000BFFFE0B23021FFF773FE43E0284901EB60
:1028F0008400D0F8000C00F44050B0F5805F39D16E
:10290000E4B9244A92F82C10E0B2FFF7E3FD204A24
:1029100002EB8401D1F8001C4BF68F7201EA020031
:1029200080F4805080F4005040F4004141F0800178
:10293000174B03EB8402C2F8001C1BE0E0B2FDF76A
:1029400075FF134A02EB8401D1F8001C4BF68F721D
:1029500001EA020080F4805000E011E080F40050B1
:1029600040F4004141F08001094B03EB8402C2F8BE
:10297000001C00BF084909684869804700206AE7D1
:1029800000BF022067E7000060000020A9010020CE
:1029900000500040AC0100206C00002010B504463F
:1029A0002CB90120064909680882002010BD05499C
:1029B000096808688047024800680A30F6E70000A6
:1029C000600000206C00002010B502460648006838
:1029D000438A32B98888C01A034C246820820020B8
:1029E00010BD08681844FBE76000002010B50446DD
:1029F0002CB90120064909680882002010BD05494C
:102A0000096888688047024800680C30F6E70000D3
:102A1000600000206C00002010B504462CB9022094
:102A2000394909680882002010BD00203749088014
:102A300035480068007800F07F0018BB324909680B
:102A4000487A00F0200131B13049097841F00201A3
:102A50002E4A117005E02D49097801F0FD012B4A3D
:102A6000117000F0400131B12849097841F00101AD
:102A7000264A117005E02549097801F0FE01234A34
:102A800011703AE020480068007800F07F000128CB
:102A900001D11E48C8E71C480068007800F07F009C
:102AA000022828D1184A1268517901F00F0001F06C
:102AB00080027AB1164B03EB8002D2F8002C02F0B0
:102AC0003002102A16D1114A127842F001020F4B3F
:102AD0001A700FE00E4B03EB8002D2F8002C02F4C8
:102AE0004052B2F5805F05D1084A127842F00102E7
:102AF000064B1A7001E0002096E70649096808694C
:102B00008047024890E70000600000205800002045
:102B1000005000406C00002010B50E480068C078DE
:102B20000D494978884213DC0A480068807878B9F2
:102B300008480068808858B906480068C078054988
:102B4000096888720549096848688047002010BDF7
:102B50000220FCE760000020A90100206C0000209A
:102B600010B507480068407A40F020000449096821
:102B7000487204490968C8698047002010BD0000F8
:102B8000600000206C0000202DE9F0412E48006814
:102B9000467926F080073C462B480068407900F0D3
:102BA000800038B1294901EB8400D0F8000C00F016
:102BB000300506E0254901EB8400D0F8000C00F454
:102BC000405523480078A04208D91F480068408833
:102BD00020B91DB11C480068807A10B90220BDE8F8
:102BE000F08106F08000A0B1184A02EB8401D1F810
:102BF000001C48F6BF7201EA020080F0100040F4A9
:102C0000004141F08001114B03EB8402C2F8001C2B
:102C100014E00E4A02EB8401D1F8001C4BF68F72CF
:102C200001EA020080F4805040F4004141F080014C
:102C3000064B03EB8402C2F8001C00BF054909687B
:102C4000886980470020CAE76000002000500040EB
:102C5000A90100206C00002010B5174B1B68D97823
:102C6000154B1B685879154B1B689A6990470446A9
:102C700011480068807AE8B13CB90F4800680079D3
:102C800018B90D480068807808B1022010BD8CB9D1
:102C90000B490968C86880470748006840790649B9
:102CA0000968C87204480068C07803490968087355
:102CB0000020EBE70220E9E760000020640000202C
:102CC0006C00002038B500250020009021480068E5
:102CD00084B200BF09E0204901EB8500D0F8000C68
:102CE00080B21E4941F825006D1C082DF3D344F431
:102CF00080641848046044F00104046024F0010476
:102D0000046000BF1348001D006800F480600028C4
:102D1000F8D04FF6FF300F49091D0860002509E083
:102D20000E4850F8250080B20B4A02EB8501C1F82D
:102D3000000C6D1C082DF3D344F008040548046012
:102D4000006884B244F0040402480460FEF71AF8F4
:102D500038BD0000405C0040005000408CC50020A1
:102D6000042808D14FF0E021096941F004014FF037
:102D7000E022116107E04FF0E021096921F0040130
:102D80004FF0E022116170477047000010B5134802
:102D9000006840F001001149086008464068104989
:102DA00008400E494860084600680E4908400B4933
:102DB00008600846006820F48020086008464068E3
:102DC00020F4FE0048604FF41F008860FFF732FCDB
:102DD0004FF000600449086010BD00000010024080
:102DE0000000FFF8FFFFF6FE08ED00E070B50546B5
:102DF0000C4622462946812000F07DFA3021012030
:102E0000FFF7E6FB03200549087005488068001BB2
:102E1000034988600020087370BD00003C01002059
:102E20007CC5002010B540F225511D4800F04AF83D
:102E300010B31B4800F002F9C4B21A48008800F42D
:102E40000040C8B91748008800F4804060B10A2CDF
:102E500003D000201349088020E01248008840F485
:102E600000401049088019E00D2C06D10D4800885B
:102E700040F480400B49088010E00A480088C0F305
:102E80000D0009490C5407480088401C054908807A
:102E900008460088C72801DD0020088010BD00001A
:102EA0000038014024000020701A002021B18289DE
:102EB00042F40052828104E082894DF6FF731A4089
:102EC0008281704770B5024600240023002500204F
:102ED00040F66A16B14200D100BFC1F3421501F0BD
:102EE0001F03012606FA03F3012D02D19689334010
:102EF00006E0022D02D1168A334001E0968A334063
:102F00000C12012606FA04F41688344013B10CB1F1
:102F1000012000E0002070BDF0B50346002400262B
:102F20000025002040F66A17B94200D100BF1846BC
:102F3000C1F3421401F01F06012707FA06F5012C20
:102F400001D10C3004E0022C01D1103000E014302B
:102F50001AB107682F43076002E00768AF430760B4
:102F6000F0BD00002DE9F04786B005460E4600246E
:102F7000A24600BFA1460027B08900B100BF2F467E
:102F80002C8A4CF6FF700440F08804432C82AC89F4
:102F90004EF6F3100440B088318908437189084324
:102FA0000443AC81AC8A4FF6FF400440B08904432F
:102FB000AC8201A8FEF7DAFD1F48874202D1DDF896
:102FC00010A001E0DDF80CA0A88900F4004040B199
:102FD0000AEBCA0000EB0A1031684900B0FBF1F8B7
:102FE00007E00AEBCA0000EB0A1031688900B0FB69
:102FF000F1F86420B8FBF0F004012009642101FB22
:103000001089A88900F4004040B1322000EBC900CB
:10301000B0FBF1F000F00700044308E0322000EBC1
:1030200009106421B0FBF1F000F00F0004432C8183
:1030300006B0BDE8F08700000038014001468888EE
:10304000C0F30800704710B54FF48020FDF74AFE2A
:1030500010BD000010B504461CB104A000F098FBA0
:1030600002E008A000F094FB10BD00007573622020
:1030700070756C6C20757020656E61626C650D0AF0
:10308000000000007573622070756C6C20757020F4
:1030900064697361626C650D0A00000010B5084830
:1030A0000849086002200968087207480749086053
:1030B000074808490860054909680868804710BD45
:1030C00040C5002060000020AC010020640000200A
:1030D000DC0100206C0000200EB54FF48020FDF7CD
:1030E00001FE4FF48020009008208DF8050001209B
:1030F0008DF806006846FDF7FBFD14208DF80800EA
:1031000001208DF8090000208DF80A0001208DF8BB
:103110000B0002A8FEF7AAFB2A208DF80800002069
:103120008DF8090002A8FEF7A1FB0EBD10B53748C7
:103130000068374908800846008800F40040354997
:103140000988084008B1FDF72DFA3148008800F4DD
:10315000806030490988084030B14FF6FF302B4974
:1031600008602D49486880472948008800F40050CD
:1031700028490988084018B14DF6FF7023490860B6
:103180002348008800F4805022490988084030B163
:103190004EF6FF701D4908600020FEF703FE1C4834
:1031A000008800F400601B490988084060B11B4892
:1031B000007810B1FFF786FD02E00220FEF7F2FD75
:1031C0004FF2FF70114908601148008800F4007048
:1031D00010490988084040B14FF6FF500B4908607C
:1031E0000F480078401C0E4908700948008800F418
:1031F000807008490988084030B14FF6FF600349E4
:1032000008600720FEF7CEFD10BD0000445C0040C2
:103210006C0100206A000020AC0100203C0200206C
:103220006E01002010B5FFF781FF10BD10B502A0A0
:1032300000F0AEFA10BD0000555342204E6F7443AB
:103240006F6E666967757265640D0A0010B5044695
:1032500001210420FEF77AFC3CB10F48006880B2DF
:1032600020F002000C49086014E00B48006880B2AE
:1032700040F00200084908600848006820F47F20F8
:10328000064908600846006840F44C300860002099
:103290000349086010BD0000405C00400408014084
:1032A000B00121420020064908604FF43F40054923
:1032B0000880084600880249091F086000207047FE
:1032C000445C00406A0000202DE9F04104460E46AF
:1032D000002504F07F00FDF72DFF054604F07F0078
:1032E000FDF718FF07462A4639463046FEF7C4FB6D
:1032F0002846BDE8F0812DE9F04104460E4615460A
:1033000004F07F00FDF734FF0746AAB23946304685
:1033100000F00AF8A9B204F07F00FFF74BF9002093
:10332000BDE8F08100BFFEE7F0B5144604F1010CE2
:103330004FEA6C07DFF824C00CEB41033D460AE07E
:103340000678401C90F800C046EA0C2223F8022BB5
:103350009B1C401C6D1E002DF2D1F0BD0060004092
:1033600010B50446214610A000F012FA240300F024
:10337000EDF800F085F800200D4908602020FEF7E8
:10338000EFFFC4F30740FEF7EBFFC4F30720FEF79F
:10339000E7FFE0B2FEF7E4FF01200649C1F8B00103
:1033A00000F06EF810BD000066653A25780D0A0041
:1033B000B08121420080214208B501210820FEF79A
:1033C000C5FB4FF48050ADF8000010208DF80300CD
:1033D00003208DF8020069460848FDF704FE4FF40B
:1033E00080510648FDF793FE012005490860FEF76D
:1033F0006DFF0020FEF7DEFF08BD0000000C01405D
:10340000B08121422DE9F04106460C4617460020C6
:103410000F4908600320FEF7A3FFC4F30740FEF73F
:103420009FFFC4F30720FEF79BFFE0B2FEF798FF73
:10343000002505E0FF20FEF793FF7055681C85B25C
:10344000BD42F7DB012002490860BDE8F0810000C1
:10345000B081214210B500240020074908600520F2
:10346000FEF77EFFFF20FEF77BFF044601200349A5
:10347000C1F8B001204610BDB08121420080214238
:1034800010B500BFFFF7E6FF00F001000028F9D1FA
:1034900010BD00002DE9F05F81460F461646DFF8AB
:1034A000A8B04FEA1738C7F30B0ACAF58054A642F2
:1034B00000DC344644E04FEA08314FF4805258466D
:1034C000FFF7A0FF002508E00AEB05001BF800004D
:1034D000FF2800D003E0681C85B2A542F4DB00BFE2
:1034E000A54216DA4046FFF73BFF002507E019F832
:1034F000050005EB0A010BF80100681C85B2A54226
:10350000F5DB4FEA08314FF48052584600F02EF8B0
:1035100004E022463946484600F028F8A64200D189
:103520000FE008F101084FF0000AA1442744301BC6
:1035300086B2B6F5805F02DD4FF4805400E0344679
:10354000B9E700BFBDE8F09F7002002010B5002071
:10355000044908600620FEF703FF01200249C1F874
:10356000B00110BDB0812142008021422DE9F0411F
:1035700007460E461446F0B2C0F58075AC4200DC3A
:10358000254612E02A463146384600F013F8AC4290
:1035900000D10BE02F442E44601B84B2B4F5807F31
:1035A00002DD4FF4807500E02546EBE700BFBDE883
:1035B000F08100002DE9F04106460C461746FFF762
:1035C000C5FF00200F4908600220FEF7C9FEC4F3C2
:1035D0000740FEF7C5FEC4F30720FEF7C1FEE0B2C8
:1035E000FEF7BEFE002504E0705DFEF7B9FE681C24
:1035F00085B2BD42F8DB012002490860FFF740FFB9
:10360000BDE8F081B08121422DE9FC4704460D461A
:1036100016465348006800F1400A5248007890B9B5
:10362000514850F82400A5FB0010504AC2E9001090
:103630004D4850F82400A6FB00104D4AC2E9001086
:103640000120484908704748007801286FD10020C0
:103650004849086012E0474801680068401C454A34
:10366000106045480068415C444800683C4A126864
:1036700081543B480068401C39490860384800685C
:103680005045E8D33948D0E900303D4909885918F8
:1036900040F10000354AC2E900103548D0E9002069
:1036A00037490988511A60F10000314AC2E9001017
:1036B0002D4850F824703A4600232D4903C9FCF7E1
:1036C00057FD00214A404B401A4322D10020244993
:1036D0000860254830F8240080B228490968CDE9FF
:1036E0000010214850F824102048D0E900305F1A1B
:1036F00060F100033A462046FDF7A1FE00F0FF0905
:10370000B9F1000F05D01F48007840F004001D49B2
:1037100008701D4880681A490988401A1A4988604B
:103720004FF440510220FEF7FBFEFDF75BFE104810
:10373000D0E90010002359405840014303D01348FA
:10374000007804280AD10020054908600121FEF70D
:10375000E5FF002003490870FDF73EFEBDE8FC8749
:10376000900000209C00002080000020B00000207D
:10377000B8000020940000204001002098000020A4
:10378000440100209D0000207CC500203C01002059
:103790000FB4054B10B503A9044A029800F018F8BD
:1037A00010BC5DF814FB0000CD580008200000207C
:1037B00002E008C8121F08C1002AFAD170477047FA
:1037C000002001E001C1121F002AFBD17047000058
:1037D0002DE9FF4F8DB09B460F460446002606E0BC
:1037E00025280BD05A460F999047641C761C2078E8
:1037F0000028F5D111B03046BDE8F08F0025A8466D
:103800000122984900E0054314F8013F203B02FAE9
:1038100003F00842F7D120782E2817D114F8010FB1
:1038200045F004052A280ED06FF02F022078A0F171
:10383000300109290AD808EB880102EB410100EBAD
:103840000108641CF2E757F8048B641C20786C288C
:103850000DD004DC4C2812D06A2811D104E0742861
:103860000DD07A280CD10AE045F4001507E0617804
:1038700045F48015814202D1641C05F58015641C55
:103880002278692A45D008DC002AB3D0582A69D0AA
:10389000632A10D0642A08D13BE0702A67D0732ACB
:1038A00013D0752A5CD0782A5CD010465A460F99FE
:1038B0009047761CD3E017F8040B8DF80000002029
:1038C0008DF80100E946012003E057F8049B4FF012
:1038D000FF3069074FF0000501D40AE06D1C454533
:1038E0000DDA8542FADB19F805100029F6D106E059
:1038F0006D1C8542FCDB19F805100029F8D12E4417
:1039000004E019F8010B5A460F9990476D1EF8D242
:10391000A5E00A200021CDE90801C5F302500228E4
:103920000DD001CFC117031E71F100030DDA4FF066
:10393000000CD0EB0C006CEB01012D2308E0FF1D07
:1039400027F00707F7E80201EDE72B0504D52B2345
:103950008DF8283001233BE0EB0739D02023F7E72F
:103960000A2000E010200021CDE9080107E0102026
:10397000002145F00405CDE908014FF00808C5F322
:10398000025002280FD001CF00214FF0000A2B0770
:103990001FD5702A0DD0DDE908C38CF0100C5CEA4D
:1039A000030C0CD015E0FF1D27F00707F7E8020114
:1039B000EBE740228DF828204FF0010A0BE050EA97
:1039C000010306D030238DF828308DF829200223FA
:1039D0009A46582A04D024A20DF120090B9209E03E
:1039E00026A2F9E7DDE90823FCF7C2FB0B9B9B5CF1
:1039F00009F8013D50EA0102F4D1ADEB0900203095
:103A00000890680701D44FF001080899884502DD45
:103A1000A8EB010000E000208046002506E00AA88F
:103A20005A46405D0F9990476D1C761C5545F6DB54
:103A300004E030205A460F999047761CB8F10001F7
:103A4000A8F10108F5DC05E019F8010B5A460F99B9
:103A50009047761C0899481E08900029F4DC641CE5
:103A6000C5E60000092801003031323334353637DD
:103A700038396162636465660000000030313233BA
:103A8000343536373839414243444546000000005A
:103A900070B504460D4600202071401EE0622946A4
:103AA000204602F0B7F908B1032070BD94F82E1239
:103AB00094F82F0241EA00204AF65521884201D0AD
:103AC0000220F2E794F86900010694F8680041EAE0
:103AD000004194F8670041EA002094F8661008431A
:103AE00020F07F400D49884201D10020DDE794F8A5
:103AF0008500010694F8840041EA004194F88300AF
:103B000041EA002094F88210084320F07F400349E6
:103B1000884201D10020C8E70120C6E74641540091
:103B2000024600E0521C107810B110788842F9D19A
:103B30001078704770B503460D46586A021D680A32
:103B40001E68B678B0FBF6F400BF02CA09B90020BF
:103B500070BD8C4200D202E0641A121DF5E700BF6E
:103B600010682044F4E70246891E5069801E88428E
:103B700001D8002070479378906A01FB0300F9E7B1
:103B80002DE9F04705460C46207820F04000401E05
:103B900000EB800101EBC00600274FF0010800BFD9
:103BA0001A48C05D205C1949C95D2144497840EA42
:103BB0000129B8F1000F10D0484601F019FC8046E9
:103BC000FF2E07D23146761C35F8110001F010FCAB
:103BD000404508D00020BDE8F0874FF6FF708145D2
:103BE00001D00020F7E7781C07460D28D8D32078AD
:103BF00000F0400038B1B8F1000F04D035F81600DD
:103C000008B10020E7E70120E5E700007A68000836
:103C10002DE9F04704468946B9F1000F06D1E7685F
:103C200017B16069B84215D8012713E0494620460C
:103C300001F0C0FE0646022E02D20120BDE8F08748
:103C4000701C08B93046F9E76069B04201D93046C6
:103C5000F4E74F463D4600BF6D1C6069A84204D89A
:103C60000225BD4201D90020E8E72946204601F09F
:103C7000A1FE064606B909E0701C08B1012E01D16B
:103C80003046DBE7BD42E7D10020D7E700BF6FF049
:103C900070422946204602F0D3F98046B8F1000F61
:103CA00008D1B9F1000F05D02A464946204602F056
:103CB000C7F98046B8F1000F0BD1E5602069401CC0
:103CC00078B12069401E2061607940F00100607188
:103CD00007E0B8F1010F02D14FF0FF3000E0012002
:103CE00005462846AAE700002DE9F34F83B0814638
:103CF00004980068019002E00198401C019001982E
:103D000000782F28F8D0019800785C28F4D0D9F8F2
:103D10001CA000252F4600BF38467F1C01990C5C73
:103D2000202C03DB2F2C01D05C2C00D132E0FF2DA6
:103D300003D3062005B0BDE8F08FE4B2812C13DB7D
:103D4000E0B2FE2810DC38467F1C01990E5C06EBC1
:103D5000042084B2402E01DB7E2E05DD802E01DBA7
:103D6000FE2E01DD0620E5E70121204601F0BCFA28
:103D700004460CB90620DDE7802C06DA214671A046
:103D8000FFF7CEFE08B10620D4E728466D1C2AF8BE
:103D90001040C1E700BF0198C11904980160202CB0
:103DA00001DA042000E00020804608E0681E3AF8AE
:103DB0001040202C02D02E2C00D002E06D1E002DD1
:103DC000F4D100BF0DB90620B4E700202AF8150091
:103DD0000B222021D9F8180002F012F8002700E089
:103DE0007F1C3AF817002028FAD03AF817002E283E
:103DF000F6D00FB148F0030800E06D1E25B1681E33
:103E00003AF810002E28F8D10020064602904FF014
:103E1000080B00BF38467F1C3AF8104004B963E035
:103E2000202C03D02E2C04D1AF4202D048F003083E
:103E3000F0E70298584501D2AF4214D1BBF10B0F05
:103E400002D148F003084FE0AF4201D048F0030828
:103E5000AF4200D948E02F46082002904FF00B0BEC
:103E6000B006060ED6E7802C09DB204601F0C0FA2A
:103E70000021009001F038FA044648F00208FF2CB7
:103E800011DDABF101000299884204D848F0030823
:103E9000CDF808B0BEE72212D9F818300298411CBC
:103EA00002911A5419E024B1214629A0FFF738FEE7
:103EB00018B15F2448F003080FE0412C04DB5A2CB2
:103EC00002DC46F0020608E0612C06DB7A2C04DCFA
:103ED00046F00106A4F1200084B2D9F81830029807
:103EE000411C02911C5495E700BFD9F818000078D6
:103EF000E52803D10520D9F818100870BBF1080F88
:103F000001D1B006060E06F00C000C2803D006F016
:103F10000300032801D148F0020808F0020058B954
:103F200006F00300012801D148F0100806F00C004B
:103F3000042801D148F00808D9F8180080F80B804F
:103F40000020F7E6222A3A3C3E3F7C7F000000003A
:103F50002B2C3B3D5B5D000010B56FF00400FEF7BD
:103F6000FFFE0A4800680A49B0FBF1F009490870F1
:103F70000846007800EB4001C1EBC0104FF6FF711E
:103F800001EAC0000449088010BD000000000020C4
:103F900000127A001A0000201C0000200146114A7D
:103FA00012884A434FF0E0235A6100229A611A4670
:103FB000126942F001021A6100BF4FF0E02210695D
:103FC00000F001021AB100F48032002AF5D04FF05F
:103FD000E022126922F001024FF0E0231A61002270
:103FE0009A6170471C0000202DE9F04104460E46FE
:103FF0000021204600F0B7F90546EDB9002700BFC3
:104000002169206801F006FF054605B113E06069EB
:104010000078E52802D06069007820B9781C07464E
:10402000B04201D107E000270121204600F07FF8CF
:104030000546002DE4D000BF042D00D107252846F9
:10404000BDE8F0812DE9F04704460021204600F04C
:104050008AF9074617B13846BDE8F0874FF0FF09E7
:10406000CA464FF6FF70208400BF2169206801F026
:10407000D1FE074607B157E065692E780EB90427CF
:1040800052E0E87A00F03F08E52E05D008F008007D
:1040900040B1B8F10F0F05D04FF0FF094FF6FF7098
:1040A00020843AE0B8F10F0F1CD1E06978B306F034
:1040B000400030B195F80DA026F04006B146E088EA
:1040C00020844E450AD1687B504507D12946E069D6
:1040D000FFF756FD10B1A9F1010000E0FF2000F04C
:1040E000FF091AE0B9F1000F05D1284602F087F860
:1040F000504500D118E0A069C07A00F0010038B93D
:104100000B222846A16901F05BFE08B90CE004E02F
:104110004FF0FF094FF6FF7020840021204600F089
:1041200006F80746002FA0D000BF384694E72DE9D7
:10413000F04104468846E088461CB0B208B12069C8
:1041400010B90420BDE8F08106F00F0000286BD103
:104150002069401C2061E06828B920680089B042CD
:1041600062D80420EEE720688078401E00EA16102E
:10417000002859D1E168206801F01CFC0546012D9A
:1041800001D80220DEE7681C08B90120DAE72068C0
:104190004069A84242D8B8F1000F01D10420D1E70C
:1041A000E1682068FFF734FD05460DB90720C9E72F
:1041B000012D01D10220C5E7681C08B90120C1E723
:1041C000206802F090F808B10120BBE7216801F1F6
:1041D00030004FF40072002101F012FE29462068E1
:1041E000FFF7C1FC2168C86200270EE001202168AA
:1041F0000871206802F077F808B10120A2E7206872
:10420000C06A401C2168C8627F1C20688078B84260
:10421000ECD82068C06AC01B2168C862E5602946E6
:104220002068FFF7A0FC2061E6802068303006F0AF
:104230000F0100EB41106061002083E72DE9FE4F84
:104240000446D4F81880D4F81C900C2241466846E5
:1042500001F0C9FD00BF9DF80B0000F0010020B384
:10426000002088F80B00E06101260CE033464A4646
:104270006946404601F038FB2046FFF7E3FE05465D
:1042800005B102E0761C642EF0D300BF642E02D18B
:104290000720BDE8FE8F042D01D02846F9E79DF8E0
:1042A0000B0088F80B00C4F81C909DF80B0000F080
:1042B000020060B1002600E0761C39F816000028E4
:1042C000FAD106F119000D21B0FBF1F700E001274A
:1042D00039462046FFF788FE054645BB781E070095
:1042E00025D0E088C11B204600F03DF80546F5B911
:1042F000A06901F084FF824600BF2169206801F0B7
:1043000089FD054605B111E0FAB253466169E069DD
:1043100001F054FA01202168087100212046FFF7BE
:1043200006FF054615B9781E0700E6D100BFC5B9DE
:104330002169206801F06EFD054695B92022002113
:10434000606901F05DFD0B22D4E9050101F04BFD30
:10435000A069C07A00F01800616908730120216823
:104360000871284695E72DE9F04104460E46E6809F
:10437000A568012D03D020684069A84202D8022018
:10438000BDE8F0812DB920680078032801D12068AC
:10439000456A45B920680089B04201D80220EFE79C
:1043A0002068476A1EE0206880784FEA001812E013
:1043B0002946206801F0FEFA0546681C08B901206C
:1043C000DEE7022D03D320684069A84201D802200D
:1043D000D6E7A6EB08064645EAD229462068FFF74D
:1043E000C2FB0746E5600FB90220C9E707EB1610CC
:1043F00020612068303006F00F0100EB4110606151
:104400000020BDE770B50446002514B1012C08D189
:1044100000E008E0FEF7D0FF4FF4C04005490880F7
:1044200001E0012500BF00BF0DB1012070BD0020DB
:10443000FCE700004402002010B50346EBB1012B5D
:104440001AD131B101290FD0022904D0032910D18A
:1044500006E000200FE04FF40074148000200AE012
:1044600008241480002006E0044C248814600020F6
:1044700001E0042000BF00E0012010BD4402002044
:104480002DE9F04107460D4616461C464FF0000840
:1044900014B90420BDE8F08117B1012F14D104E054
:1044A00000BFB8F1000FFCD111E009E071024FF438
:1044B00000722846FEF7A6FF761C05F50075641EFF
:1044C000002CF3D1A04602E04FF0010800BF00BF6E
:1044D000B8F1000F01D10020DCE70120DAE7014646
:1044E000002070472DE9F04107460D4616461C4650
:1044F0004FF0000814B90420BDE8F08117B1012F76
:1045000014D104E000BFB8F1000FFCD111E009E0C4
:1045100071024FF400722846FEF7BCFF761C05F5C9
:104520000075641E002CF3D1A04602E04FF0010894
:1045300000BF00BFB8F1000F01D10020DCE701206F
:10454000DAE7000010B500240EE04FF40C710020F3
:1045500001F058FD0E4941F82400084650F82400A7
:1045600000B903E0601CC4B2022CEEDB00BF4FF4C4
:104570000A71002001F046FD06490860022C04D1B2
:104580000846006808B1002010BD0120FCE70000CB
:10459000540200205C02002070B50546284600F059
:1045A0004BFE044634B9284601F016FF04460CB908
:1045B00000202860204670BD2DE9F04F87B00446EA
:1045C0000D46204601F008FF0690069818B106989F
:1045D00007B0BDE8F08FE07908B1E079F8E7606AEC
:1045E00000287CD0681C002843D1D4F824A05AF8B5
:1045F000040B019002200090276967B300BF029767
:10460000002003900098801C009000BF049703983E
:10461000401C03903946206801F0CCF90746012F71
:1046200002D80220E071D3E7781C10B90120E071B4
:10463000CEE70498401C8742E8D0DDE900018842BB
:1046400005D803984AF8040B02984AF8040B20682E
:104650004069B842D3D80098616A0860DDE900017A
:10466000884203D80020CAF80000F9E01120069023
:10467000F6E0E068A84200D2E568A560002DF4D01D
:10468000691E2046FFF756FA606161692068FFF7EE
:104690006AFA8146B9F1000F02D10220E07197E772
:1046A00020688078401E691E00EA512081442089DC
:1046B000C0F308000028D8D0A0694845D5D0A0791B
:1046C00000F0400080B121684878012304F12801FE
:1046D000A269FFF707FF18B10120E07178E712E047
:1046E000A07920F04000A0712168487801234A4653
:1046F00004F12801FFF7C4FE10B10120E07167E763
:10470000C4F81890ACE0E068A84204D2A07900F0A8
:10471000020000B9E568A06805904FF0000BC4F8EE
:1047200008B0002D69D0206880784FEA40280598AD
:1047300090B1681EB0FBF8F10598401EB0FBF8F090
:10474000814209D30598401EA8F101018843A06069
:10475000A0682D1A666912E026697EB900212068DA
:10476000FFF756FA0646012E02D10220E0712FE72C
:10477000701C10B90120E0712AE726616661CEB392
:1047800024E0A07900F0020038B131462068FFF73C
:104790003FFA064636B945461AE03146206801F030
:1047A00009F90646701C10B90120E07110E7012ECE
:1047B00003D920684069B04202D80220E07107E7BF
:1047C0006661A0684044A060A5EB08054545D8D8BF
:1047D00000BFA0682844A060C5F3080050B131466E
:1047E0002068FFF7C0F98346BBF1000F03D1022018
:1047F000E071EDE601E00BEB552B2089C0F30800DA
:1048000020B3A069584521D0A07900F0400078B1CC
:1048100021684878012304F12801A269FFF762FEAC
:1048200010B10120E071D3E6A07920F04000A07122
:104830002168487801235A4604F12801FFF720FE39
:1048400010B10120E071C3E6C4F818B0D4E9020148
:10485000884205D9A068E060A07940F02000A071EE
:104860000698B5E62DE9F74F90B0904611980128CB
:1048700003DD132013B0BDE8F08F10A801F015F987
:104880000F900F98002801DA0B20F3E7FC490F98EE
:1048900051F820B0BBF1000F01D10C20EAE7002055
:1048A0008BF800000F98C0B20C9000200B900C9871
:1048B000FFF7A8FD0190019800F0010008B1032066
:1048C000D8E7019800F0040008B10A20D2E700BF41
:1048D00004AA01210C98FFF7AFFD10B904988028B5
:1048E00001D20120C6E7119808B1002000E03F2066
:1048F00081460498A0EB09000490A8F1010000EAA9
:10490000080008B14FF00008B8F1000F13D14FF4C0
:10491000FA610498B0FBF1F00A904FF0000A01E050
:104920000AF1010AD74830F81A100A988142F7D8DC
:10493000D54830F81A80B8F5007F01D34FEA5828DF
:10494000B8F1000F01D14FF00108B8F1800F01D983
:104950004FF080080498B0FBF8F7012540F6F67098
:10496000874200D302254FF6F670874200D3032515
:10497000032D0AD1082000EB870000F2FF10460A41
:10498000202003900020029011E0012D05D107EBBB
:104990004700401C4008C01C01E07800001D06468E
:1049A00006F2FF10460A012003902020029003988F
:1049B00048440790079830440690029906980844A6
:1049C000059005984044A0EB09000499884201D95C
:1049D0000E204FE709AA03210C98FFF72DFD28B9F7
:1049E000099818B10998B0F5004F01D90120099034
:1049F000099905980844401E491E88430990099961
:104A00000598081A0990032D08D1099903980844BC
:104A10000390099907980844079001E00998064413
:104A2000DDE90301081A811B0298081AB0FBF8F7A8
:104A3000022D03D140F6F670874205D3032D05D130
:104A40004FF6F670874201D20E2013E7032D02D1F4
:104A50000C200D9010E0012D06D10498B0F5803F98
:104A600002D201200D9007E00498B0F5803F01D2FA
:104A7000042000E006200D9000BF119810B1F02036
:104A80000E9044E04FF4007200210BF1300001F071
:104A9000B7F90BF5F77401206070A0700020E0708A
:104AA0000D982071FE206071049848443F21B0FBAE
:104AB000F1F0FF21B0FBF1F009903F21099841EAA4
:104AC0009000A0710998E0713F202072002161726E
:104AD000A172E172049820730498010A617304982A
:104AE000010CA1730498010EE17355218BF82E126D
:104AF000AA218BF82F12012300220BF130010C9810
:104B0000FFF7F0FC08B10120B4E6F8200E900BF19D
:104B100030044FF400720021204601F071F90B229D
:104B20005AA1204601F05FF94FF4007A84F80BA0F7
:104B30004FEA1A21217384F80D800398A07303981B
:104B4000010AE17301202074032D01D1002001E04E
:104B50004FF40070824684F811A04FEA1A21A17424
:104B60000498B0F5803F05D20498E0740498010AD7
:104B7000217510E0049884F820000498C0F3072100
:104B8000212001550498C0F30741222001550498C3
:104B9000010E232001550E9860753F2020760021DC
:104BA0006176FF20A076E17684F81C904FEA192107
:104BB00061774FEA1941A1774FEA1961E17700F077
:104BC00072FF0990032D3ED1099884F8430009989B
:104BD000C0F30721442001550998C0F3074145203F
:104BE00001550998010E4620015584F82460C6F34A
:104BF000072125200155C6F3074126200155310E16
:104C000027200155022084F82C0000212D20015579
:104C10002E2001552F200155012084F8300031202D
:104C20000155062084F8320033200155802084F895
:104C30004000292084F84200132217A104F1470004
:104C400001F0D1F837E0099884F827000998C0F3FB
:104C50000721282001550998C0F307412920015553
:104C60000998010E2A200155A675310AE1758020A8
:104C700084F82400292084F82600132216E000007E
:104C800048020020886800089E680008EBFE904DEE
:104C900053444F53352E30004E4F204E414D45204A
:104CA00020202046415433322020200079A104F1F5
:104CB0002B0001F098F8552084F8FE01AA2140F25B
:104CC000FF10015501234A4621460C98FFF70AFCC4
:104CD00008B10120CEE5032D06D1012309F106021A
:104CE00021460C98FFF7FEFB079808904FF0000A4A
:104CF00061E04FF400720021204601F081F80E9827
:104D00000990032D14D0012D01D1674801E06FF007
:104D1000FF00099908430990099820700998000A32
:104D200060700998000CA0700998000EE07019E0FE
:104D3000099860F0FF000990099820700998000A0E
:104D400060700998000CA0700998000EE070FF20B8
:104D50002071FF216171A171E17120726172A172F4
:104D60000F21E1720898411C024601230891214657
:104D70000C98FFF7B7FB08B101207BE54FF40072F8
:104D80000021204601F03CF8012009900EE008982F
:104D9000411C02460123089121460C98FFF7A2FB13
:104DA00008B1012066E50998401C09900998B042B5
:104DB000EDD30AF1010ABAF1000F9AD0032D01D107
:104DC000404600E00298824600BF0898411C024617
:104DD0000123089121460C98FFF784FB08B10120BC
:104DE00048E5AAF101005FEA000AEED1032D46D1A1
:104DF0005220207060706120A0704120E07072200D
:104E000084F8E401722140F2E51001554121401C73
:104E100001556121401C0155781E84F8E801C0F35A
:104E2000072140F2E9100155781EC0F307414FF405
:104E3000F5700155781E010E40F2EB10015502206D
:104E400084F8EC01002140F2ED100155401C0155A1
:104E5000401C0155552084F8FE01AA2140F2FF10A4
:104E60000155012309F1010221460C98FFF73AFB95
:104E7000012309F1070221460C98FFF733FB0022BA
:104E800011460C98FFF7D8FA08B10120F2E400208F
:104E9000F0E400004E4F204E414D4520202020469A
:104EA000415420202020200000FFFF00F7B582B0F1
:104EB00016460398019001A800F0F7FD0546002D65
:104EC00002DA0B2005B0F0BD0E4850F825400CB1B9
:104ED00000202070029810B1002002990870094942
:104EE000029841F82500029808B1012E01D0002057
:104EF000E8E7002203A902A800F096FA0746384620
:104F0000E0E70000480200202DE9F7478DB0054694
:104F100016461DB9092010B0BDE8F08700202860B2
:104F200006F01F0626F001020EA904A800F07CFA84
:104F30000746002F73D14FF4007000F04BFA814602
:104F4000B9F1000F01D11120E5E7CDF82C9001A8AF
:104F50000A9004A80E9900F071FC0746099C0FB94D
:104F600004B9062706F01C00002851D04FB1042FC9
:104F700003D104A8FFF762F9074646F00806099C2A
:104F800009E0E07A00F0110008B1072703E006F01D
:104F9000040000B10827002F4AD106F008000028BD
:104FA00046D000F080FD804684F80E804FEA18213C
:104FB000E1734FEA184121744FEA186161740020CF
:104FC000E072207700216177A177E177214604988C
:104FD00000F00AFE82460021204601F008F9012077
:104FE00004990871BAF1000F22D00498D0F82C80EF
:104FF0005146049801F0C5F80746CFB9AAF101005F
:105000000499C8604146049800F004FF07460FE089
:1050100077B9E07A00F0100010B1042708E031E021
:1050200006F0020020B1E07A00F0010000B107278D
:1050300047B906F0080008B146F020060498C06A97
:10504000E8612C62484600F0CCF9DFB9AE7100206F
:10505000E8712146049800F0C7FD2861E07F010651
:10506000A07F41EA0041607F41EA0020217F0843A0
:10507000E8600020A860A861686204982860286839
:10508000C088A880384646E72DE9FF4F83B0044624
:1050900015469A46DDF810B00020CAF800002046F8
:1050A00001F09AF90290029818B1029807B0BDE891
:1050B000F08FE07908B1E079F8E7A07900F001001D
:1050C00008B90720F2E7D4E90210401A00900098CE
:1050D000854200D9009DAAE02089C0F3080000287D
:1050E00076D120688078401EA16800EA512000F047
:1050F000FF09B9F1000F1FD1A06810B92069019014
:105100000CE0606A28B12046A168FEF713FD01900B
:1051100004E06169206800F04DFC019001980228CC
:1051200002D20220E071C1E70198401C10B90120B1
:10513000E071BBE70198606161692068FEF713FDCB
:10514000064616B90220E071B0E74E444FEA5528F2
:10515000B8F1000F29D009EB08002168897888424E
:1051600003D920688078A0EB090821684878434675
:1051700032465946FFF784F910B10120E07195E7F6
:10518000A07900F0400068B1A069801B404509D2B9
:10519000A169891B0BEB41204FF4007204F1280137
:1051A00000F021FE4FEA482737E0A069B04220D046
:1051B000A07900F0400080B121684878012304F113
:1051C0002801A269FFF78EF918B10120E0716DE79F
:1051D00010E0A07920F04000A071216848780123F8
:1051E000324604F12801FFF74BF910B10120E071BC
:1051F0005CE7A6612089C0F30800C0F50077AF42E4
:1052000000D92F462089C0F3080204F128001118A4
:105210003A46584600F0E7FD00BFBB44A06838445A
:10522000A060DAF800003844CAF80000ED1B002D39
:105230007FF452AF002039E72DE9F04104462046C3
:1052400001F0CAF80746002F4CD1A07900F02000E9
:10525000002847D0A07900F0400078B12168487854
:10526000012304F12801A269FFF73CF910B10120E4
:10527000BDE8F081A07920F04000A071E1692068CC
:1052800000F0C8FD0746002F2CD1256AE87A40F0CF
:105290002000E872207B2877A089010A6977E068FE
:1052A000010CA977E068010EE9772846216900F032
:1052B0009EFF00F0F8FB0646AE75310AE975310C29
:1052C0002976310E69760020A8740021E974A0794E
:1052D00020F02000A071012021680871206800F0F2
:1052E0009EFF07463846C3E72DE9FC5F0446894622
:1052F0004FF0000B802C01DA27465CE02F48007845
:10530000A0B94FF40A71002000F07CFE2C4908601F
:1053100001222CA12A480068FFF7F6FD18B10020F1
:105320002649087002E0012024490870B9F1000FF5
:1053300005D023480068C0684FEA500B01E04FF0E9
:10534000000B1E48007888B31D480068C0684FEA0B
:10535000500A0120C0EB9A0A4FF0000810261EE008
:10536000AAEB080008EB50050BEB85011448006818
:10537000FFF722F96B46042201A911480068FFF7E4
:1053800083FEBDF80400A04200D10AE0BDF804008D
:10539000A04201DAA84600E0AA46701E86B2002E9E
:1053A000DED100BF1EB1BDF8060001E002E0002022
:1053B000074600E000273846BDE8FC9F18000020A3
:1053C00014000020313A554E4947424B2E42494E77
:1053D0000000000010B504462146002000F012FE37
:1053E00010BD10B504462146002000F0F9FD10BDA7
:1053F0000246002100E0491C094830F8110020B1A4
:10540000074830F811009042F5D1054830F81100F6
:1054100018B1044830F8110070471046FCE700004E
:105420000E640008EE6500082DE9F74F8AB00021F0
:105430000A9801600B9800F038FB09900998002841
:1054400003DA0B200DB0BDE8F08FD849099851F868
:1054500020400CB90C20F5E70A980460207878B158
:105460006078FFF73CF8814609F0010040B90C98DC
:1054700020B109F0040008B10A20E3E70020E1E7C9
:1054800000202070099860706078FEF7BBFF8146AD
:1054900009F0010008B10320D4E70C9820B109F00D
:1054A000040008B10A20CDE7002739462046FEF760
:1054B000EFFA0546012D01D09DBB32E000261AE02F
:1054C00004F5F77000EB061898F8040070B198F82E
:1054D0000B00010698F80A0041EA004198F809001B
:1054E00041EA002098F80810084300E0002002A9D3
:1054F00041F82600761C042EE2D3002606B1761E63
:1055000000BF02A850F8267027B139462046FEF7A2
:10551000BFFA00E0022005461DB1701C06460428B3
:10552000EFD3032D01D101208CE70DB10D2089E7C8
:105530003B20015D94F83C0041EA0020B0F5007F7B
:1055400001D00D207EE74620015D94F8470041EA36
:10555000002ABAF1000F0ED194F85700010694F812
:10556000560041EA004194F8550041EA002094F8C1
:10557000541040EA010AC4F818A04020005DE07011
:10558000E078012804D0E078022801D00D2059E706
:10559000E0780AFB00FA3D20005DA070A07818B109
:1055A000A078411E084008B10D204BE74120015D65
:1055B00094F8420041EA00202081207A00F00F0098
:1055C00008B10D203EE74320015D94F8440041EA14
:1055D00000200890089870B994F85300010694F8D8
:1055E000520041EA004194F8510041EA002094F849
:1055F0005010084308903E20015D94F83F0041EAB6
:1056000000200190019808B90D201BE70198504433
:10561000218900EB11100790DDE90701814201D2D9
:105620000D200FE7DDE90710401AA178B0FBF1FB70
:10563000BBF1000F01D10D2004E7012540F6F67003
:10564000834500D302254FF6F670834500D303252A
:105650000BF102006061E76101983844206207980D
:105660003844A062032D16D1208908B10D20E9E647
:1056700094F85F00010694F85E0041EA004194F856
:105680005D0041EA002094F85C10084360626069A4
:105690008000069014E0208908B90D20D2E6206A27
:1056A00050446062022D02D16069400007E0207D15
:1056B00000F00100616901EB410100EB510006902F
:1056C000A169069800F2FF10B1EB502F01D20D2016
:1056D000B8E64FF0FF302061E06080206071032D5C
:1056E0005AD194F8601094F8610041EA0020012832
:1056F00052D1791C204600F08DFBE8BB0020607180
:1057000094F82E1294F82F0241EA00204AF655210F
:10571000884241D13320005D01063220005D41EA1C
:1057200000413120005D41EA002094F83010084328
:105730001F49884230D194F81702010694F81602E6
:1057400041EA004194F8150241EA002094F814124D
:105750000843184988421FD194F81B02010694F8A7
:105760001A0241EA004194F8190241EA002094F833
:1057700018120843206100E00EE094F81F020106B1
:1057800094F81E0241EA004194F81D0241EA00200B
:1057900094F81C120843E060257007480088401CFC
:1057A00080B205490880E08000204BE648020020D6
:1057B000525261417272416150020020F0B50446BC
:1057C0001D464D730F27CF7200270F738F76BC468F
:1057D00081F81BC0571E07EB870C0CEBC706002790
:1057E00038463B4600BF4FF6FF77B84203D03746F6
:1057F000761C34F81700DFF840C01CF803C001F82D
:105800000C000712DFF830C01CF803C08C448CF881
:10581000017008B94FF6FF705F1C3B460D2FE2D3B5
:105820004FF6FF77B84202D034F816700FB942F045
:1058300040020A70F0BD00007A6800082DE9F341CB
:105840000446019800782F2803D0019800785C283E
:1058500002D10198401C01900020A06001980078BE
:10586000202807D200212046FEF77DFD05460020B6
:10587000606128E000BF01A92046FEF735FA054621
:1058800005B11FE02046FEF7DDFB0546A069C67A9C
:105890003DB1042D04D100BF06F0040000B9052578
:1058A00010E006F0040000B10CE06769F87A00F03F
:1058B000100008B9052505E03946206800F094F984
:1058C000A060D8E700BF2846BDE8FC8100BF054ABC
:1058D000128802F04002002AF9D0C2B2014B1B1D0F
:1058E0001A807047003801402DE9FF4F83B007460A
:1058F00091461E460B223846049900F074FA052E94
:1059000019D9B04612E039F802BB00250CE0584620
:1059100068F35F0080464FEA6B0B08F4803010B1EB
:10592000234888EA00086D1C102DF0D3B9F8000058
:105930000028E8D14646072500BF06F00F0000F119
:10594000300ABAF1390F03DD0AF1070000F0FF0A4F
:1059500028466D1E01A901F800A03609002EECD1E1
:105960007E20485500240BE0385D812807DB385D38
:10597000FE2804DC681EA04200D106E0641C641C02
:10598000AC4202D2385D2028EED100BF00BF082D06
:1059900004D228466D1C01A9095C00E020212046A4
:1059A000641C3954082CF2D307B0BDE8F08F000016
:1059B000211001002DE9F04705460C46022C02D3C8
:1059C0006869A04202D84FF0010969E04FF0FF3941
:1059D0002878012804D002282ED003285CD13FE08B
:1059E000274607EB5707286A00EB5721284600F0A7
:1059F00011FA00B153E038467F1CC0F3080105F1ED
:105A0000300010F80180286A00EB5721284600F08A
:105A100001FA00B143E0C7F3080105F13000405C32
:105A200048EA002804F0010010B14FEA181001E024
:105A3000C8F30B00814632E0286A00EB14212846A7
:105A400000F0E8F900B12AE040F2FF1000EA44015A
:105A500005F130000E183078717840EA01291EE017
:105A6000286A00EBD411284600F0D4F900B116E002
:105A700040F2FF1000EA840105F130000E18F078C2
:105A80000006B17840EA0140717840EA012031789F
:105A9000084320F0704902E04FF0010900BF00BF49
:105AA0004846BDE8F0870020704770B502464FF0C9
:105AB000FF301568E5B1116800E0491C0D78202D14
:105AC00002D30D783A2DF8D10D783A2D0FD1146804
:105AD00014F8015BA5F130030A2B07D28C4205D1E3
