:020000040800F2
:10000000C86600205103000861700008FD45000823
:1000100079640008E5250008C1B10008000000006F
:10002000000000000000000000000000B90200080D
:100030001539000800000000FD020008659E000858
:100040006B0300086B0300086B030008557A000877
:100050006B0300086B0300086B0300086B030008C8
:100060006B0300086B0300086B0300086B030008B8
:100070006B0300086B0300086B0300086B030008A8
:100080006B0300086B0300086B030008E7AE000871
:10009000A9B000086B0300086B030008ED3B0008E3
:1000A0006B0300086B0300086B0300086B03000878
:1000B0006B030008D59E00086B0300086B03000863
:1000C0006B0300086B0300086B030008658E0008D3
:1000D0006B03000871A4000815A6000895A7000886
:1000E0006B0300086B0300086B0300086B03000838
:1000F0006B0300086B0300086B0300086B03000828
:100100006B030008398300080D9F00086B0300088B
:10011000A9A100086B0300086B0300086B0300082B
:100120006B0300086B0300086B0300086B030008F7
:1001300000F002F800F0B0F80AA090E8000C824449
:100140008344AAF10107DA4501D100F0A5F8AFF226
:10015000090EBAE80F0013F0010F18BFFB1A43F0A5
:100160000103184754A4050074A405000A444FF085
:10017000000C10F8013B13F0070408BF10F8014B06
:100180001D1108BF10F8015B641E05D010F8016B4B
:10019000641E01F8016BF9D113F0080F1EBF10F8AF
:1001A000014BAD1C0C1B09D16D1E58BF01F801CBD2
:1001B000FAD505E014F8016B01F8016B6D1EF9D555
:1001C0009142D6D37047000000230024002500266A
:1001D000103A28BF78C1FBD8520728BF30C148BFAA
:1001E0000B6070476E2900F0AA86702900F0B1827A
:1001F000662927F0F681652927F0F381672927F022
:10020000F0816129AFF3008003681B0A28BF41F029
:100210008001692900F02282642900F01F8275297B
:1002200000F01C826F2901F0B781782900F07D82EF
:10023000E92901F05181E42901F04E81F52901F00D
:100240004B81EF2901F0B481F82900F07C8203682A
:10025000DB0928BF41F08001632901F0C0807329C8
:1002600001F0C580E32901F0C982F32901F0CE82B3
:10027000002070471FB501F02DFA04000020002176
:1002800026F02EFB401C60600020002126F03EFB83
:10029000E0601FBD10B510BD01F081FB1146FFF7F6
:1002A000E9FF15F049FA01F09FFB03B4FFF7F2FFF5
:1002B00003BC0BF043FC0000224B19680868B0E84F
:1002C000F00F80F30988BFF36F8F4FF0000080F3C9
:1002D00011884EF00D0E70470000000006480068BF
:1002E000006880F3088862B661B6BFF34F8FBFF332
:1002F0006F8F00DF00BF00BF08ED00E0EFF3098063
:10030000BFF36F8F0F4B1A6820E9F00F106008B52C
:100310004FF0500080F31188BFF34F8FBFF36F8F02
:1003200025F0EEF94FF0000080F31188BDE8084099
:1003300019680868B0E8F00F80F30988BFF36F8F81
:10034000704700BF44010020EFF3058070470000B4
:100350000948804709480047FEE7FEE7FEE7FEE759
:10036000FEE7FEE7FEE7FEE7FEE7FEE70448054995
:10037000054A064B70470000759E000831010008D1
:10038000C8600020C8660020C8620020C862002043
:10039000704753EA020C00F069802DE9F04B4FF0F2
:1003A0000006002B1FBFB3FA83F503FA05F424FA05
:1003B00005F65E4012BF1643B2FA82F502FA05F462
:1003C000C5F120051EBF22FA05FC44EA0C042035C5
:1003D00056EA044C4FEA144418BF641C4FF000085E
:1003E0004FF00009904271EB030C39D3002919BF7B
:1003F000B1FA81F701FA07F6B0FA80F700FA07F6CA
:10040000C7F120071EBF20FA07FC46EA0C0620377A
:10041000B6FBF4FCA7EB0507103F07F01F0BCBF171
:1004200020060CFA0BFB2CFA06F644BFB346002656
:10043000202FA4BF5E464FF0000B5BEA060C08BFFE
:100440004FF0010B19EB0B09ABFB027C48EB0608E4
:10045000C01B06FB02CC0BFB03CC71EB0C01C1E70C
:100460000B46024641464846BDE8F08B13B54FF0B7
:1004700000004FF00001AFF30080BDE81C40704762
:1004800010B54C1084EA530404D54042C1F1000178
:1004900038BF491E1B4204D55242C3F1000338BF86
:1004A0005B1EFFF776FF14F0804F04D04042C1F18D
:1004B000000138BF491E14F0004F04D05242C3F16E
:1004C000000338BF5B1E10BD10B5044600F0C0FC31
:1004D0000068005D000704D5DF2C02D0A4F12000E5
:1004E00010BD204610BD00001CB50C46064B7B44D9
:1004F00069460090204600F048FF04460020694607
:1005000000F056FF20461CBDBF0E00007CB51D4606
:1005100016460C00009001D02044401E074B7B443F
:100520002A4669460190304600F02FFF05461CB16F
:100530000020694600F03CFF28467CBD990E000073
:100540000FB4044910B503AA029800F055FF10BC7F
:100550005DF814FB200100200FB41CB5084B06AA5F
:100560007B4469460090059800F00FFF0446002088
:10057000694600F01DFF20461CBC5DF814FB00001E
:100580004D0E00000FB47CB50C0009AA009001D0FC
:100590002044401E084B7B4469460190089800F0B7
:1005A000F4FE05461CB10020694600F001FF284614
:1005B0007CBC5DF814FB0000210E000070B5044601
:1005C00085690068C10601D5302600E02026C007F5
:1005D00007D070BDD4E9012130469047206A401C05
:1005E00020626D1EF6D570BD70B504468569007831
:1005F000C00707D170BDD4E9012120209047206AAF
:10060000401C20626D1EF6D570BD70B50C460546C7
:10061000012A05D02878800600D5EA69002302E087
:10062000012305E05B1C934202D2E05C0028F9D173
:10063000A869E618C01AA861286A184428622846E2
:10064000FFF7BCFF04E0D5E9012114F8010B904746
:10065000B442F8D32846FFF7C7FF70BD2DE9F0413B
:100660000646002410687529314616A510D000F002
:10067000FBFB002802DA404213A507E031688A0735
:1006800001D512A502E0490704D511A5012401E016
:1006900000F0F3FB00210A2206F1240709E0B0FB79
:1006A000F2FCB0FBF2F302FB1C0030307854184629
:1006B000491C0028F3D123462A463046BDE8F041C4
:1006C00000F0E4BB000000002D0000002B00000043
:1006D00020000000F0B40D460188090502D5214C28
:1006E0007C4402E01F4C7C440E34002100F12406BF
:1006F00008E002F00F071209E75D42EA03721B09E6
:100700007754491C52EA0307F3D1027800231207F9
:1007100004D5702D06D009B1022311342246F0BC55
:1007200000F0B4BB01231034F8E770B504460D4661
:100730002146106800F0A1FB024629462046BDE88C
:1007400070400023C6E7D21D22F00703D3E900233F
:10075000C0E70368126843F0200303600823C36105
:100760000023B7E7B09605002DE9F05F89460446FF
:100770004FF0000ADFF874B1FB44C0F820A0204617
:10078000E1688847002874D0252806D0D4E90121E3
:100790009047206A401C2062F1E700265F46204611
:1007A000E16888472028054607DB312D05D27819F6
:1007B00010F8200C08B10643F1E7B00701D526F088
:1007C0000406C4F81CA00027C4F818A02A2D09D0DC
:1007D00028460BF00FF938B304EB8708303DC8F812
:1007E000185019E059F8041B204604EB8702916168
:1007F000E1688847012F054618D1E069002820DA12
:1008000026F020061DE0D8F8180000EB800005EB6C
:1008100040003038C8F818002046E168884705468F
:100820000BF0E8F80028EED1012F0AD02E2D08D1C8
:100830002046E16888477F1C0546022F46F02006C7
:10084000C4DBA069002803DA404246F00106A0613B
:10085000F00701D026F010066C2D0BD0682D09D0C2
:100860004C2D39D06A2D35D0742D35D07A2D33D01A
:1008700016E038E0E1682F4620468847B842054632
:1008800009D16C2F26D04FF48060E16806432046E2
:100890008847054604E06C2F1AD04FF48070064359
:1008A0000DB3A5F14100192802D8203546F40066A1
:1008B0004A462946204626604E46FFF793FC80B103
:1008C00001280BD0F61D26F0070000F1080956E7B5
:1008D0004020E4E78020D8E70020D6E706F10409AD
:1008E0004DE7284652E7206ABDE8F09F4096050094
:1008F00070B5064600F0B4FA0468054630460A2290
:10090000002100F00FF82C6070BD70B5064600F0B5
:10091000A7FA0468054630460A22002100F002F8D2
:100920002C6070BD2DE9F04791460F468046044685
:10093000002614F8015B2DB100F08AFA0068405DD2
:10094000C007F6D12B2D02D02D2D18D0641E4A469B
:100950003946204600F036FE27B13968A14201D160
:10096000C7F800804FF0020471050BD54042002803
:1009700003DD00F075FA0460A007BDE8F08746F4D7
:100980008066E4E70028F8DA00F06AFA04606FF0A5
:100990000040F2E70EB5054614460E4613A000F0DF
:1009A00068FE284600F065FE16A000F062FE3046A4
:1009B00000F05FFE15A000F05CFE00218DF80B102A
:1009C0000A210DF10A008DF80A1008E094FBF1F2FB
:1009D00001FB124294FBF1F4303200F8012D002C9F
:1009E000F4DC00F046FE00F03CFE00002A2A2A203B
:1009F000617373657274696F6E206661696C65649A
:100A00003A2000002C2066696C6520002C206C695F
:100A10006E652000014A00F037BE0000BC0D0020CA
:100A2000401ECAB210F8011F8A4202D00029F9D133
:100A30000020704730B505460B462A4613F8014B97
:100A400012F8010B08B1A042F8D01CB1002802D066
:100A50006D1CF1E7284630BD40EA010310B59B0745
:100A60000FD1042A0DD310C808C9121F9C42F8D018
:100A700020BA19BA884201D9012010BD4FF0FF30C9
:100A800010BD1AB1D30703D0521C07E0002010BDDF
:100A900010F8013B11F8014B1B1B07D110F8013B6B
:100AA00011F8014B1B1B01D1921EF1D1184610BD4C
:100AB00040EA0103024630B59B0710D14FF00134E4
:100AC00000E008C208C91D1B9D4315EAC41FF8D0E9
:100AD00013F0FF0102F8011B0DD01B0AF8E711F813
:100AE000013B002B02F8013B05D011F8013B002B24
:100AF00002F8013BF3D130BD0022CBB210F8011B4C
:100B0000994200D1421E0029F8D11046704710B515
:100B1000431C02E010F8011B71B18107FAD14FF0BC
:100B2000013202C88C1A8C4314EAC211F9D0C01ADF
:100B30000A0603D0C01E10BDC01A10BD0A0401D0A1
:100B4000801E10BD0902FCD0401E10BD40EA01030A
:100B500070B59B072ED14FF00136042A2AD308C85E
:100B600010C99D1B9D43121F15EAC61517D0D8B298
:100B7000E1B2401A50EA056110D198B2A1B2401A10
:100B800050EA05410AD123F07F4024F07F41401A0A
:100B900050EA052102D1180EA0EB146070BDA342EB
:100BA000DBD018BA21BA884201D9012070BD4FF0BC
:100BB000FF3070BD0AB9002070BD10F8013B11F87C
:100BC000014B63B1A3420AD1521E08D010F8013B79
:100BD00011F8014B1BB1A34201D1521EEDD1181BDC
:100BE00070BD032A40F2308010F0030C00F0158035
:100BF00011F8013BBCF1020F624498BF11F801CB20
:100C000000F8013B38BF11F8013BA2F1040298BF84
:100C100000F801CB38BF00F8013B11F0030300F0EE
:100C20002580083AC0F0088051F8043B083A51F892
:100C300004CBA0E80810F5E7121D5CBF51F8043B97
:100C400040F8043BAFF30080D20724BF11F8013B0A
:100C500011F801CB48BF11F8012B24BF00F8013B6C
:100C600000F801CB48BF00F8012B704710B5203ABF
:100C7000C0F00B80B1E81850203AA0E81850B1E855
:100C80001850A0E81850BFF4F5AF5FEA027C24BF0B
:100C9000B1E81850A0E8185044BF18C918C0BDE802
:100CA00010405FEA827C24BF51F8043B40F8043BCB
:100CB00008BF7047D20728BF31F8023B48BF11F880
:100CC000012B28BF20F8023B48BF00F8012B7047DA
:100CD00002F0FF0343EA032242EA024200F002B8B4
:100CE0004FF000020429C0F0128010F0030C00F055
:100CF0001B80CCF1040CBCF1020F18BF00F8012BD3
:100D0000A8BF20F8022BA1EB0C0100F00DB85FEAA0
:100D1000C17C24BF00F8012B00F8012B48BF00F86C
:100D2000012B70474FF0000200B5134694469646DB
:100D3000203922BFA0E80C50A0E80C50B1F12001EE
:100D4000BFF4F7AF090728BFA0E80C5048BF0CC09C
:100D50005DF804EB890028BF40F8042B08BF7047FA
:100D600048BF20F8022B11F0804F18BF00F8012B6C
:100D7000704710B5044610F0030F08BF11F0030FC1
:100D800040F015804FF0013E121FC0F20E8051F866
:100D9000043BA3EB0E0C2CEA030C1CEACE1C08BF90
:100DA00040F8043BF0D0A1F1040102F10402521E0C
:100DB00008DB11F8013B002B00F8013BF7D111468D
:100DC000FFF78EFF204610BD4FF0013C50F8042B7A
:100DD00051F8043B9A4221D1A2EB0C03934313EA4E
:100DE000CC1317D150F8042B51F8043B9A4215D17B
:100DF000A2EB0C03934313EACC130BD150F8042B52
:100E000051F8043B9A4209D1A2EB0C03934313EA35
:100E1000CC13DBD04FF00000704700BFD01A01BAEE
:100E2000B1FA81F101F0180122FA01F0CB40C1F1D1
:100E30002001DBB2C0B2C01A2CFA01F3D11A9143DF
:100E400011EAC311E6D17047704770477047704789
:100E500010B500F03FFC001D10BD00BF855A020018
:100E6000004870476460002009684A0501D540B217
:100E70007047C905FCD500B2704709684A0501D51D
:100E8000C0B27047C905FCD580B270472DE9F04764
:100E90000D4699469246044600F1240801688806EA
:100EA00004D5E06921F01001216000E00120A84292
:100EB00001DD471B00E00027A1697A1902EB090058
:100EC000081AA0612078C00602D42046FFF776FBFE
:100ED000002608E0D4E901211AF806009047206AAC
:100EE000401C761C20624E45F4DB2078C0060AD5F3
:100EF0002046FFF763FB06E0D4E90121302090474C
:100F0000206A401C2062381EA7F10107F4DC07E0CC
:100F1000D4E9012118F805009047206A401C20629E
:100F2000281EA5F10105F3DC2046FFF75DFB2078C4
:100F3000000602D50220BDE8F0870120FBE711681A
:100F40000268006A530501D508700AE0D30501D58F
:100F5000088006E0130603D5C217C1E9000200E0CD
:100F600008600120704770472DE9FF4F0C461E4670
:100F70004FF0FF378BB0D2E90001DDF860800A90B6
:100F80008A46C1F30A5505B93D46002108464FF08F
:100F90000000BAF1000F00F4400005DA00EB800019
:100FA0004FF4400101EA50004FEA9059B9F1010FA6
:100FB00000DDB9460A9850EA4A000ED044F61050B7
:100FC000A5F2FF3545432F14B8F1000F1ED075422E
:100FD000291E1EDDC9F100021CE0B8F1010F4FF01F
:100FE000000001D0302103E0F24305E02154401C11
:100FF000B042FBDB30460022002121540B99C1F89E
:101000000880C1E900200FB0BDE8F08FBD1B6D1C4A
:10101000DEE74A4600DA694206A800F009FC06ABA2
:1010200093E8070003AB83E8070050460A9900F0F5
:1010300018FD8DE80700A0F500501F3800900398B8
:10104000002D09DD42F21F014A46084403A903901E
:10105000684600F077FF08E0A0F500504A461F38C8
:1010600003A90390684600F081FF8DE807000004A3
:10107000000C03D04FF0FF30410800E01046B8F1FB
:10108000000F03D00022009215461EE0751E05D405
:1010900000F024FB303262556D1EF9D5B3460122B3
:1010A000084302D000227F1C04E02078302801D1C0
:1010B00000227F1E002A099786D01DE0112D07DA35
:1010C00000F00CFB303262556D1C50EA0102F5D184
:1010D000084302D00098C8B10EE00021681E05E068
:1010E000235C625C63542254401E491C8142F7DB3E
:1010F000AB46A81B401E0990002004F80B000B987B
:10110000099AC0F80880C0E9002B7CE711264FF04F
:10111000000859E72DE9F04F88460446D21D22F019
:10112000070191B0D1E90001CDE90A010AF04EFCB6
:1011300002460B98C00F01D02D2007E020688107E0
:1011400001D52B2002E0202101EAC000032A0990EA
:1011500001D0072A05DB03464146204600F004FB88
:101160000BE12078800601D5E06900E00620B8F1A7
:10117000650F814606D0B8F1660F18D0B8F1670F39
:1011800070D131E00020B9F1110F009001DB112383
:1011900001E009F101030AAA01A90CA8FFF7E4FE86
:1011A000DDE90C70002609F10105834647E00120C6
:1011B0004B4600904FF000470AAA01A90CA8FFF780
:1011C000D3FEDDE90DB00C995D46002610B909F19A
:1011D00001000D18B9EB050003D4C0F1FF3609F189
:1011E0000105A5EB09002BE0B9F1010F01DA4FF081
:1011F00001090020B9F1110F0090484601DD1123CB
:1012000000E003460AAA01A90CA8FFF7ADFEDDE93C
:101210000C704D4600268346207800070AD4AB4563
:1012200000DA5D4601A8012D04DD411911F8011C09
:10123000302907D04F4502DA17F1040F04DA0120F4
:1012400082460FE06D1EEEE7002F02DCED1B3E44F0
:1012500003E0781CA84200DD7D1CB81B00F1010AE8
:101260004FF000472078000703D4AA4501DB4FF078
:10127000FF3A0021B7F1004F0DF143088DF84310FC
:1012800024D002202B23002F01DA7F422D230A21B4
:10129000021EA0F1010000DC5FB197FBF1FC97FB9F
:1012A000F1F201FB1C7C17460CF1300C08F801CD63
:1012B000EEE7A8F1010003702188090501D5452159
:1012C00000E06521A0F1010800F8011C09980FA9B0
:1012D000A1EB0807FF1D00B10120411901EBEA70E5
:1012E000A1693844081A401EA0612078C00602D4C3
:1012F0002046FFF763F9099828B1D4E90121904706
:10130000206A401C20622078C00622D52046FFF7C4
:1013100055F91EE0002E04DBB34502DD01A8805D17
:1013200000E03020D4E901219047206A401C20626F
:10133000761CAAF101005FEA000A0AD100F0CAF99E
:10134000C0680168405CD4E901219047206A401CD4
:101350002062281EA5F10105DCDC07E0D4E90121AB
:1013600018F8010B9047206A401C2062381EA7F134
:101370000107F3DC2046FFF737F9032011B043E6FD
:1013800001694A1C02610878704700B58FB0CDE949
:1013900001310021059105497944CDE90310114639
:1013A0006846FFF7E1F90FB000BD0000E5FFFFFF61
:1013B0000A6802F8010B0A607047D1E900239A42DB
:1013C00002D2531C0B601070704710B5436913B103
:1013D000AFF3008001E0FFF718F9012010BD12788B
:1013E00000F124010A7000224A700122EDE7116821
:1013F0004FF0FF32E9E70000074B70B50D467B4424
:10140000FFF7C3FF0446284600F080FA10B14FF002
:10141000FF3070BD204670BD3FEF00002DE9FF5F3B
:1014200015468A460446DFF8AC80F8440027D8E920
:1014300000103E46CDE9001010E03AF816106A465A
:1014400002A800F067FA411C07D02178890603D56D
:10145000E269391891420DD80744761C207880063D
:1014600002D5E069B84205DDAE42E6DB3AF8160087
:101470000028E2D1A069C01BA0612046FFF79EF8BA
:10148000D8E90010CDE90010002017E03AF8181054
:101490006A4602A800F03EFAB0F1FF3F81460BD049
:1014A00000250DF1080B05E0D4E901211BF805002A
:1014B00090476D1C4D45F7D308F10100B0428046BE
:1014C000E4DB206A384420622046FFF78DF8BDE84F
:1014D000FF9F0000A28905002DE9F0418046D21D42
:1014E00022F007020025D2E90002F52915A614D042
:1014F000011E72F1000106DA0023D0EB030063EB5A
:10150000020211A608E0D8F800108B0701D50FA63B
:1015100002E0490701D50EA601251146002408F175
:10152000240704E000F0DAF830323A55641C50EA3F
:101530000102F7D12B46324621464046BDE8F04134
:10154000FFF7A4BC000000002D0000002B000000ED
:101550002000000030B4002100F1240408E002F073
:101560000705D208303542EA4372DB086554491C4E
:1015700052EA0305F3D10468002310A2250708D519
:1015800004F020040C4304D0C46901230CA2641E9F
:10159000C46130BCFFF77ABC10B504462146106820
:1015A000FFF76BFC02462046BDE810400023D1E760
:1015B000D21D22F00701D1E90023CBE70000000093
:1015C000300000002DE9F05F824615468B4600276B
:1015D0000AF10104B9460078302801D09DB113E02A
:1015E00014F8010B0127782803D0582801D045B101
:1015F0000AE00DB1102D07D1002714F8010B1025BA
:1016000002E0082500E00A250026B0460EE005FBB2
:10161000080005FB06F101271FFA80F801EB1046D0
:10162000B6F5803F00D3B94614F8010B294600F007
:10163000F1F80028EBDABBF1000F05D00FB1641E02
:1016400000E05446CBF80040B9F1000F06D0FFF798
:1016500007FC02210160C81EBDE8F09F48EA064071
:10166000FAE7002000F076F9FEF714FE01200AF0F8
:1016700065FA10B5044602E0641C0AF061FA2078AD
:101680000028F9D110BD00002DE9F04115460E46A5
:10169000040002D12C6804B90BA4204600F071F9B3
:1016A0000444207870B127463146384600F059F995
:1016B0000444207810B1002004F8010B38462C6057
:1016C000BDE8F0810027F9E70000000000487047FE
:1016D00064600020004870478460002030B5B0F19D
:1016E0000A024FEA900E71F100034EEA817EB0EBE0
:1016F0000E0061EB91014FEA101E4EEA017E10EBE5
:101700000E0041EB11114FEA102E4EEA016E10EB64
:101710000E0041EB11214FEA104E4EEA014E10EB44
:101720000E0041EB1141401841F100014FEAD00099
:1017300040EA41704FEAD10110EB80054FEA810485
:1017400044EA907444EB01046D1944EB0404521B09
:10175000A3414FF0000348BF0A3200D530BD401C02
:1017600041F1000130BD00002DE9F0411F46044663
:1017700003260168072A01F4006004DB08B116A5FE
:1017800005E016A503E008B115A500E015A521F0B8
:1017900010002060A069C01EA0610FB1401EA061B2
:1017A0002046FEF70BFF4FB1D4E9012138469047A0
:1017B000206A401C2062C01C206206E0206AFAE712
:1017C000D4E9012115F8010B9047761EF8D2204686
:1017D000FEF70AFFBDE8F0814E414E006E616E00DB
:1017E000494E4600696E660010B5436913B1AFF308
:1017F000008001E0FFF712FE012010BD128800F109
:10180000240182840022C2840122EDE711684FF096
:10181000FF32E9E73A2800D2303820F02002412A8E
:1018200001D3A2F13700884201D34FF0FF30704757
:101830002DE9F047814616468AB0334878440DC8F2
:101840008DE80D0030487844801C03AC0DC884E856
:101850000D0041F69B300844372190FBF1F290FBDC
:10186000F1F5A5F1800501FB12041B3C02D5644291
:10187000012000E00020DFF890A080460027FA4415
:10188000AAF1BE0A0DE0E00709D03246684607EB30
:1018900047010AEB810100F069FB8DE80700641045
:1018A0007F1C002CEFD1184F7F44AC3F18E0E807B5
:1018B00014D007EB04100DF1180A90E80E008AE826
:1018C0000E00C068F04201D198190890324606A96E
:1018D00003A800F04BFB03AB83E807006D10641C0A
:1018E000002DE4D132466946B8F1000F03A802D0BA
:1018F00000F028FB01E000F039FBC9E90001C9F85C
:1019000008200AB0BDE8F08714860500007B00F0CF
:101910008000704770B516460C460546FFF798FAEA
:10192000036893F80101012806D0FF2C0FD8185D39
:1019300068B101202C7070BDD3F8070132462146F2
:1019400003F2071303442846BDE8704018474FF0E0
:10195000FF3070BD10B500F053F8BDE8104000F046
:1019600049B830B503461D781DB10A4603E0AC42C4
:1019700001D1181A30BD12F8014B002CF7D15B1CB5
:10198000F1E730B503461D783DB10A4612F8014B28
:101990001CB1AC42FAD15B1CF5E7181A30BD754694
:1019A000FFF794FEAE4605006946534620F0070057
:1019B000854618B020B5FEF7D9FCBDE820404FF0B1
:1019C00000064FF000074FF000084FF0000B21F029
:1019D0000701AC46ACE8C009ACE8C009ACE8C009F6
:1019E000ACE8C0098D4670470446AFF3008020463E
:1019F000FEF75BFC002801D00AF0A0B87047000099
:101A000010B5002102A000F013F8012010BD000065
:101A1000534947414252543A2041626E6F726D61A0
:101A20006C207465726D696E6174696F6E00000080
:101A300070B505460C460A2000E06D1C0AF080F8DF
:101A400035B128780028F8D102E0641C0AF078F853
:101A500014B120780028F8D1BDE870400A200AF0BF
:101A60006FB85FEA400C08BF91F0000F4FEA8C237B
:101A70004FEAC12243EA51514FEA1C5018BF00F50A
:101A8000F0404FEA300018BF41F000415FEA6C5C63
:101A900000F02980BCF1FF3F08BF40F08040704754
:101AA000130C06BF12044FF0100C4FF0000C130E75
:101AB00004BF12020CF1080C130F04BF12010CF149
:101AC000040C930F04BF92000CF1020CD30F04BF5F
:101AD00052000CF1010C11464FF00002A0F11F0062
:101AE000A0EB0C00704711F0004F08BF704731F0B9
:101AF00000413FF4D5AF0B0C06BF09044FF0100CAA
:101B00004FF0000C0B0E04BF09020CF1080C0B0F78
:101B100004BF09010CF1040C8B0F04BF89000CF108
:101B2000020CCB0F04BF49000CF1010CCCF12003D7
:101B3000A0EB0C0022FA03F302FA0CF241EA0301D3
:101B400000F10100704720F07F4C80EA030023F091
:101B50007F47ACEB070303F57C5300F0004003F133
:101B6000FF032DE980494FEA154B09B44FEA1443AE
:101B700025EA0B4E24EA03480FF2042606EB13274E
:101B800049083E785FEA320203FB0667C7F50007A3
:101B900007FB06F64FEA54374FEAD64606F102062F
:101BA00007FB066CCCF1005C4FEA1C472CEA074CA3
:101BB00007FB06F40CFB06F504EB15464FEA9616F8
:101BC00034BF00204FF000404FEAD13706FB07FC3E
:101BD0004FEA1C4C0CFB0BF7D21B03FB0CF761EB21
:101BE00007010CFB0EF7B0EB074072EB17420CFB42
:101BF00008F734BFA2EB0742B2EB074261EB174193
:101C00004FEA0C444FEA910706FB07FC4FEA1C4CD5
:101C10000CFB0BF7B0EBC74072EB573203FB0CF732
:101C200034BFA2EBC742B2EBC74261EB57310CFBAA
:101C30000EF7B0EBC70072EB57720CFB08F734BF1E
:101C4000A2EBC702B2EBC70261EB5771039F4FEAE9
:101C5000816141EA921104EBCC044FEAD1374FEA9B
:101C6000826206FB07FC42EA90124FEA80604FEA6C
:101C70001C4C0CFB0BF7D21B03FB0CF761EB0701B1
:101C80000CFB0EF7B0EB074072EB17420CFB08F7AA
:101C900034BFA2EB0742B2EB074261EB17414FEAB8
:101CA0008C554FEA910704EB9C2406FB07FC4FEA96
:101CB0001C4C0CFB0BF7B0EBC74072EB573203FB2D
:101CC0000CF734BFA2EBC742B2EBC74261EB57310E
:101CD0000CFB0EF7B0EBC70072EB57720CFB08F76A
:101CE00034BFA2EBC702B2EBC70261EB577115EB31
:101CF0004C254FEA816141EA92114FEA82624FEA34
:101D0000D13742EA901206FB07FC44F100044FEA87
:101D100080604FEA1C4C0CFB0BF7D21B03FB0CF74B
:101D200061EB07010CFB0EF7B0EB074072EB1742BB
:101D30000CFB08F734BFA2EB0742B2EB074261EBA2
:101D4000174115EB1C154FEA813141EA92414FEAE8
:101D5000823242EA90424FEA80304FEA0C7644F1F8
:101D6000000448EA03434EEA0B484FF0000EB2EB82
:101D7000080C71EB030724BF624639464EEB0E0E8A
:101D80004FF0000B0018524149414BEB0B0BB2EBEB
:101D9000080C71EB03077BF1000B24BF6246394648
:101DA0004EEB0E0E4FF0000B0018524149414BEB29
:101DB0000B0BB2EB080C71EB03077BF1000B24BF9C
:101DC000624639464EEB0E0E51EA020718BF46F046
:101DD000010616EB0E7655F1000254F1000103D511
:101DE000BDE88901BDE80088BDE88901BDE800487B
:101DF000B619524141EB0101A3F101037047808004
:101E00007F7E7D7C7B7A7978777676757473727154
:101E100071706F6E6E6D6C6C6B6A6A69686867660C
:101E200066656464636362616160605F5F5E5E5D9E
:101E30005D5C5C5B5B5A5A59595858575756565512
:101E400055555454535352525251515050504F4F74
:101E50004F4E4E4D4D4D4C4C4C4B4B4B4A4A4A49C4
:101E60004949484848474747474646464545454407
:101E70004444444343434342424242414141002B94
:101E800026D4770021D01CB54FEA370703B44FF0B2
:101E900010004FF010014FF000000FBCBDE81040E3
:101EA0000BF1010BBBF1010F08BF5FEA170722BF5F
:101EB00012F1010211F101014FF0004143F1000361
:101EC00000F0004043EA00007047F9D35708DAE712
:101ED00046EA064613F1400F4FEA16461FDD13F19E
:101EE000200FDFBF16430A46002120335B42C8D0D3
:101EF000C3F1200746EA064602FA07F74FEA1646FC
:101F000046EA0706C3F1200722FA03F201FA07F7AF
:101F100021FA03F14FF0000342EA0702B1E746EA73
:101F2000020646EA06464FEA164646EA0106BCBFE6
:101F300046EA0646360C4FF000034FF000024FF021
:101F400000019EE72DE9C048934630B491E838007F
:101F500007C831EA400C48BF34EA430C03D5FFF709
:101F6000F2FDFFF78CFFF0BCBDE800882DE9C0480A
:101F7000934630B491E8380007C810F0804F08BF8E
:101F800013F0804F03D100F005F8FFF778FFF0BCA5
:101F9000BDE8008820F07F4780EA030023F07F4CF3
:101FA00007EB0C03A3F57C5300F00040A3F1FE0304
:101FB00092F0000F00F0B38095F0000F00F07780F2
:101FC0002DE901494FEA11404FEA144621EA004841
:101FD00000FB06FC24EA064708FB06F607FB08F8A8
:101FE00000FB07F718EB06484CEB164C4FEA124B78
:101FF00018EB07484FEA15464CEB174022EA0B4E08
:102000000BFB06FC25EA06470EFB06F607FB0EFE59
:102010000BFB07F71EEB064E4CEB164C4FF0000681
:102020001EEB074E4CEB174B18EB0B0840F1000072
:1020300018EB0E0B58EB000840F100008F1A4FF020
:1020400000013CBFC943661B14BFB5EB040C002163
:102050003CBFC943F61B4FEA17444EEA8E0E27EAEF
:1020600004454FEA1C4704FB07622CEA074C05FBBA
:1020700007F70CFB05F604FB0CFC16EB074642EBDE
:10208000174216EB0C4642EB1C421BEB060658EBC4
:102090000202414146EA9E0601D5BDE80189B61912
:1020A000524141EB0101A3F10103BDE801894FEA6F
:1020B00014454FEA114724EA054621EA074C05FB7F
:1020C00007F406FB07F70CFB06F105FB0CFC11EB14
:1020D000074144EB17444FEA124711EB0C4144EB24
:1020E0001C4422EA074C05FB07F206FB07F70CFB32
:1020F00006F605FB0CFC16EB074642EB174216EB07
:102100000C4642EB1C456A1854F1000148BF704769
:10211000B619524141EB0101A3F10103704795F05B
:10212000000F37D04FEA11424FEA144721EA024626
:1021300024EA074C02FB07F106FB07F70CFB06F449
:1021400002FB0CFC14EB074441EB17414FEA154727
:1021500014EB0C4441EB1C4125EA074C02FB07F54C
:1021600006FB07F70CFB06F602FB0CFC16EB07461A
:1021700045EB174516EB0C4645EB1C42121951F185
:10218000000148BF7047B619524141EB0101A3F16C
:10219000010370474FEA14454FEA114724EA054608
:1021A00021EA074C05FB07F106FB07F70CFB06F2DB
:1021B0004FF0000605FB0CFC12EB074241EB174108
:1021C00012EB0C4251EB1C4148BF7047921841EB97
:1021D0000101A3F10103704721B1826842F00102BD
:1021E000826003E0826822F0010282607047000092
:1021F00010B504461248844208D10121401505F06B
:10220000C7F90021601505F0C3F917E00D488442B5
:1022100008D10121001505F0BBF90021201505F0BA
:10222000B7F90BE00848844208D10121C80305F042
:10223000AFF900214FF4004005F0AAF910BD0000ED
:102240000024014000280140003C014001460020DC
:102250008A6802F004020AB1012000E00020704701
:102260000146C86C80B270470246002013680B40DC
:102270000BB1012000E000207047014600208A6871
:1022800002F008020AB1012000E0002070470000BF
:102290002DE9FC5F0446002600BF00BF00BF0025FB
:1022A000284624F000FD214A214BCDE9000124F00D
:1022B0000DFD074624F0CAFC05464FF47A70B5FBC5
:1022C000F0F0C6B206EB4600C0EBC610A5EBC000AE
:1022D0006421B0FBF1F000F0FF094FF47A70704315
:1022E00009EBC90101EB091100EB8100281A0A2151
:1022F000B0FBF1FAE820704309EBC90101EB0911C9
:1023000000EB81000AEB8A0100EB4100A5EB000B1A
:1023100006F13000207009F1300060700AF13000E1
:10232000A0700BF13000E070BDE8FC9F9A9999997C
:102330009999E93F30B502460020002350680F4CC0
:1023400020400D790C6844EA0524204350609068D1
:102350000B4C2040D1E902542C434D7944EA45040A
:1023600020439060D06A20F470000C7C641EE4B2BC
:10237000234340EA0350D06230BD0000FFFEF0FF6F
:10238000FDF7F1FFF0B504460D4600200021092DB0
:1023900011DDE068A5F10A0606EB4607072606FAF6
:1023A00007F18843A5F10A0606EB460603FA06F193
:1023B0000843E0600CE0206905EB4507072606FAB4
:1023C00007F1884305EB450603FA06F1084320614F
:1023D000072A0FDA606B561E06EB86071F2606FAE1
:1023E00007F18843561E06EB860605FA06F10843F8
:1023F000606322E00D2A0FDA206BD61F06EB8607FA
:102400001F2606FA07F18843D61F06EB860605FA53
:1024100006F10843206310E0E06AA2F10D0606EB26
:1024200086071F2606FA07F18843A2F10D0606EB80
:10243000860605FA06F10843E062F0BD816841F0C6
:1024400008018160704721B1826842F4A002826075
:1024500003E0826822F4A00282607047816841F044
:10246000040181607047000000B587B001214FF47E
:10247000047005F07DF84FF4004005F03DF80220AF
:10248000ADF8040000208DF8070001A91C4801F0F8
:1024900089FE0120ADF8040000208DF8070001A995
:1024A000184801F07FFE1848FFF7A2FE00200290B6
:1024B0008DF80C008DF80D004FF460200490002082
:1024C000059001208DF8180002A90F48FFF732FF90
:1024D00001210D48FFF780FE0B48FFF7AFFF00BF5B
:1024E0000948FFF7CAFE0028FAD10748FFF7B6FFF0
:1024F00000BF0548FFF7AAFE0028FAD107B000BDCB
:102500000010014000080140002401402DE9F04185
:1025100007460C46154698460026224629460AA03C
:1025200001F024FD0746781C60B10020064607E054
:1025300055F8260004A1FEF747FC701CC0B2064601
:10254000A642F5DBBDE8F0814245455000000000A1
:1025500010B5012005F02CF8002005F029F810BD79
:1025600008B50146002000900348009000980844F8
:1025700000900098008808BD006C00400149086088
:102580007047000000860D4208B500220092044A00
:102590000092009A02440092009A116008BD000067
:1025A000006C004010B5044624B1012C07D0022C69
:1025B00015D10AE01021012006F02CFF10E04FF4A5
:1025C0008051022006F0CEFE0AE01021012006F024
:1025D00021FF4FF48051022006F0C4FE00E000BF4E
:1025E00000BF10BD00BFFEE70146CAB20B1243EAAE
:1025F0000220704710B5002405E0A8480068005D7F
:10260000A7490855641CA74800888442F5D3A4480C
:102610004068A5494860A24880688860A148008851
:102620001F280FD00220FFF7BDFF00209C49086043
:10263000487B1A22052106F0B1FF0021012006F097
:102640008FFF10BD9648C07B282803D09448C07BDC
:102650002A2816D19248407C01069148807C41EAA4
:1026600000418F48C07C41EA00208D49097D084324
:102670008E4908608A48C17D807D41EA00208C49EE
:102680000860874800688B4988426FD18448407B46
:1026900089490968884207D88148807B012803DB83
:1026A0007F48807B10280DDD0220FFF77BFF7C49EF
:1026B000487B2422052106F071FF0021012006F04D
:1026C0004FFFE8E07648C07B25285FD01BDC15284B
:1026D0006FD00EDC08286DD006DC00285BD0032804
:1026E00030D0042867D176E00A286ED01228F9D1BC
:1026F0002DE01A380A285ED2DFE800F0392EB17DCD
:1027000033B1B1B1B1438A286FD00EDC552867D000
:1027100006DC282844D02A284ED02F28E2D155E0C4
:102720005A2829D08828DDD176E0A8286DD004DC8D
:102730008F286FD09E28D5D173E0AA287BD0AF28F0
:10274000D0D182E05649487B05F050FD95E05449D0
:10275000487B05F023FC90E05149487B05F05AFD89
:102760008BE04F49487B05F055FD86E086E04C49FB
:10277000487B05F063FC80E04949487B05F054FC48
:102780007BE04749487B05F0EDFC76E04449487B17
:1027900005F09AFC71E04249487B05F043FD6CE08E
:1027A0003F49487B42490A684049096805F050FCA6
:1027B00063E01BE024E052E03949487B3C490A6869
:1027C0003A49096805F06AFD57E02FE03449487B33
:1027D00005F044FD51E03249487B05F0C7FB4CE071
:1027E0002F49487B05F0FEFB47E029E02C49487B58
:1027F00005F0F8FB41E02A49487B05F0F3FB3CE09B
:102800002749487B05F0EEFB37E02549487B05F07A
:10281000E9FB32E01EE00EE02149487B05F0E2FBD7
:102820002BE01F49487B05F0DDFB26E01C49487B77
:1028300005F0D8FB21E01A49487B05F0D3FB1CE0EA
:102840001749487B05F0CEFB17E01549487B05F09A
:10285000C9FB12E01249487B05F0C4FB0DE00220E1
:10286000FFF7A0FE0E49487B2022052106F096FEC8
:102870000021012006F074FE00BF0CE00220FFF7EB
:1028800091FE0749487B2022052106F087FE0021A2
:10289000012006F065FE00BFD3E6000080030020A3
:1028A0007831002084030020983100208803002024
:1028B0008C03002055534243E803002010B5002448
:1028C00049E047F6FF70294908602948008800F070
:1028D0000F002849087008460078274901EB80005E
:1028E000D0F8000C84B204F40040C8B1214800784C
:1028F00001EB8000D0F8000CC0F30E0048F68F7199
:1029000008401C4909781C4A02EB8101C1F8000CFF
:1029100018490978491E194A52F8210080471AE0DF
:1029200004F08000B8B113480078134901EB80002F
:10293000D0F8000C48F60F7108400E4909780E4A8D
:1029400002EB8101C1F8000C0A490978491E0C4AC2
:1029500052F8210080470548006880B20449088089
:1029600000F400400028ACD110BD0000445C0040E1
:10297000AC030020A002002000500040CC03002047
:10298000B003002010B504466078312802D102A0BF
:10299000FDF7D6FD10BD00007265637620206361EF
:1029A0006D65726120636F6E74726F6C2063616D10
:1029B0006D616E640A0000000022002104E00A48F4
:1029C000405C1044C2B2491C08480088801E8842FE
:1029D000F5DC06480088801E034B185C904201D14C
:1029E000012070470020FCE79E2900202C010020D8
:1029F00010B529E00020154908700621144807F099
:102A00001FFD00235A1E19461248006823F01CF9C6
:102A100040B132211048FEF763F910A0FDF790FD98
:102A2000012010BD06210A4807F00AFD0F48006882
:102A3000401C0E49086008460068322804DD0CA0DE
:102A4000FDF77EFD0020ECE7D4E700002E0100201A
:102A5000580D0020100D00209E29002053796E6330
:102A6000207375636573730D0A0000008C0D0020E0
:102A700053796E63206572726F0A00000B4A02EB95
:102A80008001D1F8001C01F4804171B102EB80019A
:102A9000D1F8001C48F68F7211404CF280021143AD
:102AA000024B03EB8002C2F8001C7047005000404C
:102AB0000B4A02EB8001D1F8001C01F0400171B11A
:102AC00002EB8001D1F8001C48F68F72114048F2E9
:102AD000C0021143024B03EB8002C2F8001C704796
:102AE00000500040084A02EB8001D1F8001C48F673
:102AF0008F62114048F280021143034B03EB8002C6
:102B0000C2F8001C704700000050004070B5044639
:102B100005E01548456B05F0450000B100E0F8E719
:102B200000BF042005F0FCFB20B1042005F0F2FBFF
:102B3000032070BD012005F0F3FB20B1012005F05A
:102B4000E9FB0120F5E708480069A04201D0102008
:102B5000EFE740F2FF5004498863084640690821C6
:102B60000840C0B2E5E700000080014029B1064AF4
:102B700052680243044B5A6004E0034A526882439D
:102B8000014B5A6070470000002004E000B5282087
:102B900000F0B0F90246292000F0ACF942EA002228
:102BA0002A2000F0A7F942EA00422B2000F0A2F907
:102BB00042EA0062104600BD70B500241A48007851
:102BC000082811D108E0642009F032FE601CC4B26C
:102BD000642C01DDFF2070BD012000F051F900F0F0
:102BE00020000028EFD010E008E0642009F020FE6B
:102BF000601CC4B2642C01DDFF20ECE7012000F072
:102C000079F900F040000028EFD0012000F072F9BF
:102C1000022101EAA015002000F06CF9C0F3C00009
:102C200005432846D7E70000C00E002010B59AB033
:102C300001214FF4F07004F09BFC0121080204F024
:102C400067FC0121084604F093FC8020ADF8640085
:102C500003208DF8660010208DF8670019A98148BF
:102C600001F0A0FA4020ADF8640048208DF867001C
:102C700019A97D4801F096FA4CF23370ADF8640062
:102C800003208DF8660018208DF8670019A9754893
:102C900001F088FA4FF68070ADF8640003208DF8DB
:102CA000660018208DF8670019A9704801F07AFABB
:102CB0004FF40050ADF8640003208DF86600182032
:102CC0008DF8670019A96A4801F06CFA4FF400709A
:102CD000ADF8640003208DF8660018208DF86700B9
:102CE00019A9614801F05EFA0621084601F03AFA96
:102CF0004020179000208DF860000C208DF86100B6
:102D000001208DF8620017A800F0EEFF402000F0CF
:102D1000D1FF17208DF858000D208DF859000020A4
:102D20008DF85A0001208DF85B0016A804F09AF97E
:102D30000020009001900320029000200390049056
:102D4000059006900220079000200890099010201E
:102D50000A9000200B900C900D900E900F904FF465
:102D6000805010900020119012901390CDF850D008
:102D7000CDF854D007A801F021F80121022001F07C
:102D800003F83C48046808203B490870002048804C
:102D90008120487072200871732137484171692180
:102DA0008171210CC171210A01724472FF203249E4
:102DB0008872FF213048C172017341738173C173FE
:102DC0000174417400F032F9642009F031FDFFF71D
:102DD000DDFE04462948844202D001201AB010BD0D
:102DE0002549087800F0E2F90021084600F00CFAC5
:102DF0000021022000F008FA3F21082000F004FA28
:102E00003821092000F000FA00210A2000F0FCF926
:102E100000212F2000F0F8F92C21012000F0F4F916
:102E20000F21FE2000F0F0F980212D2000F0ECF9B8
:102E30001148001D00F09EF90F480A3000F0A8F973
:102E40003121052000F0E0F98021FF2000F0DCF9BD
:102E5000FFF7B2FE044608484178FF2000F0D4F99D
:102E60000020BBE700140140002001400018014091
:102E7000001C0140E8F7FF1FC00E0020460A00902A
:102E800070B5044644F040010C2000F0BDF90C215F
:102E90000B2000F0B9F90A2009F0CAFC00210B2030
:102EA00000F0B2F90D2000F025F802460E2000F0E7
:102EB00021F842EA002085B2284670BD70B505466B
:102EC0000C4645F040010C2000F09EF9E1B20D20C7
:102ED00000F09AF9210A0E2000F096F90A210B2041
:102EE00000F092F9322009F0A3FC00210B2000F041
:102EF0008BF970BD0146034801804FF0C840B0F81F
:102F000000017047FE0000642DE9FE430024002309
:102F10005A1E19464248006822F096FE00BFF02073
:102F2000FFF7E8FF3F480088C7B2002F62D0012FAB
:102F30000AD90021052000F067F98021FE2000F069
:102F400063F92046BDE8FE83F2203649891E0880D9
:102F50004FF0C840B0F800010290881C0088019032
:102F60000322BDF80410104613F014FF0446A4B168
:102F700025460FE0D5F804806E8908E04FF0C84080
:102F8000B0F80001A8F8000008F10208B61E002EF3
:102F9000F4DC2D68002DEDD10CE0E846BDF80460AE
:102FA00006E04FF0C840B0F80001A8F80000B61ED7
:102FB000002EF6D1BDF8080000F43F4040B9BDF83E
:102FC0000400402804DBBDF80400B0F5C06F1DDD2F
:102FD000BDF80400B0F5C06F06DD0121002000F04F
:102FE00013F9052009F024FC14B1204614F0D2FB9B
:102FF000002494E70221FE2000F006F981200A490E
:10300000487008464178FF2000F0FEF800231A4679
:1030100019460348006822F053FF204692E700005B
:103020009400002000010064C00E002010B50020B4
:103030001B4908600A2009F0FBFB01201949C1F86F
:103040009C01642009F0F4FB01211E2000F0DCF853
:1030500000211F2000F0D8F80321002000F0D4F850
:1030600000BF192009F0E4FB0020FFF743FF00F048
:1030700001000028F5D10021084600F0C5F8032121
:10308000002000F0C1F800BF192009F0D1FB00209A
:10309000FFF730FF00F001000028F5D110BD00005F
:1030A0009C81224200802242F8B504460027002677
:1030B00000235A1E19462C48006822F0C5FD8021C5
:1030C000FF2000F0A1F8F8202849088025461BE0E1
:1030D0006889B84216DD3846791C8FB26A68125C7E
:1030E0003046711CCEB20DF80020022E0CD19DF896
:1030F00000009DF8011040EA01201C49891C08804D
:10310000002601E02D680027002DE1D1012E04D119
:103110009DF800001549891C0880217AFC2000F0E8
:1031200073F82089010AFD2000F06EF801210220C9
:1031300000F06AF800BFFE20FFF7DCFE00F002009E
:103140000028F8D00221FE2000F05EF808484178FF
:10315000FF2000F059F800231A461946024800687B
:1031600022F0AEFEF8BD000094000020FE000064D6
:10317000C00E002010B50446002306E0E15C03F118
:10318000100000F041F8581CC3B2062BF6DB10BD4E
:1031900010B50446002306E0E15C03F1160000F0E0
:1031A00033F8581CC3B2082BF6DB10BD70B50646C9
:1031B000092E1BD2DFE806F0050C1A1A08101A1A9D
:1031C00015000024212511E04FF4807441250DE005
:1031D0004FF40054812509E04FF4045440F20115E6
:1031E00004E04FF4805440F2E11500BF00BF2146D7
:1031F0000020FFF763FE29460420FFF75FFE002151
:103200001F2000F001F870BD034A10804FF0C84243
:10321000A2F8001170470000FE00006438B51548A0
:103220000588FE20FFF766FE04462146FE20FFF7D4
:10323000EBFF04F0040010B10FA0FDF781F904F0DA
:10324000080010B112A0FDF77BF904F0010020B1D5
:1032500069461948006822F09DFF064805800098DD
:1032600038B14FF0805015490860BFF34F8FBFF35E
:103270006F8F38BDFE000064646D393030302E63CE
:10328000A3BA6F766572666C6F77200D0A00000036
:10329000646D393030302E63A3BA6F766572666C18
:1032A0006F7720636F756E746572206F76657266D6
:1032B0006C6F77200D0A00009000002004ED00E004
:1032C00021B1026842F00102026004E002684FF698
:1032D000FE731A400260704701684FF6FE7211409B
:1032E00001600021016041608160C1604B498842FA
:1032F00008D14A490839496841F00F01474A083A5C
:1033000051608AE045491431884208D1434908395F
:10331000496841F0F001414A083A51607DE03F4977
:103320002831884208D13D490839496841F4706123
:103330003A4A083A516070E038493C31884208D135
:1033400036490839496841F47041344A083A5160B5
:1033500063E032495031884208D130490839496820
:1033600041F470212D4A083A516056E02B496431EE
:10337000884208D129490839496841F47001274A2F
:10338000083A516049E025497831884208D12349FB
:103390000839496841F07061204A083A51603CE0C0
:1033A0001F49884206D1011F096841F00F01021F21
:1033B000116032E01A491431884208D11849091FB6
:1033C000096841F0F001164A121F116025E0144906
:1033D0002831884208D11249091F096841F47061F7
:1033E0000F4A121F116018E00D493C31884208D184
:1033F0000B49091F096841F47041094A121F116005
:103400000BE007495031884207D10549091F096877
:1034100041F47021024A121F1160704708000240F7
:10342000080402400146486880B270471AB1036838
:103430000B43036002E003688B430360704710B5E1
:103440000022026847F6F0739A430C6A8B682343A4
:103450000C6923434C6923438C692343CC69234380
:103460004C6A23438C6A23431A430260CB6843604F
:103470000B6883604B68C36010BD416070470000FB
:1034800010B51848006818490978884228D00A20E1
:1034900009F0CEF9134800681349097888421FD013
:1034A0001048006810490870012010490870104841
:1034B000D0F81C0101280DD100200E490860012020
:1034C0000D49087000231A4619460C48006822F07E
:1034D000F7FC05E001200749086000200649087054
:1034E00010BD00001C012242B4000020C9000020D1
:1034F00000002242A0812342C0000020200D0020B5
:103500002DE9F0472848006800F110052E8826486C
:103510000068077AD6B9042F18D12448007801280A
:103520000FD100212248006880B2801C214A42F855
:10353000101030202049088000BF00201B4908706F
:1035400003E0072710201C49088027E0AC88A6422A
:1035500001D8042000E002200746B44200D93446D6
:10356000A0B2A96888478046002000F04BFF814642
:10357000A2B24946404607F07FFFA1B2002005F005
:103580003BFF2888001B2880688820446880302002
:103590000949088000020949088000BF02490968FA
:1035A0000F72BDE8F0870000A40200209C020020FA
:1035B000505C004000600040B6020020B4020020D1
:1035C0002DE9F0412848006800F110042688A06821
:1035D000C0B1BEB1A588B54200D93546A8B2A16830
:1035E000884707462088401B2080608828446080E8
:1035F000002000F0D9FE8046AAB24146384603F0CA
:10360000F3FE00BF208850B14FF4405017490880A6
:103610000021084605F0F0FE30201549088020887A
:10362000A188884204DB03200F490968087218E06A
:103630002088002804DD05200B490968087210E085
:10364000208870B9062008490968087200210948D5
:10365000006880B2801C084A42F8101030200449EB
:103660000880BDE8F0810000A4020020B402002020
:10367000B6020020505C0040006000402DE9F84F89
:103680009B48006845780027BA46062D1BD198480C
:103690000068007800F07F00002813D19449096881
:1036A0008878012803D193490968CF690AE0022884
:1036B00003D1904909680F6A04E0032802D18D49BB
:1036C00009684F6A94E0002D64D1894800684088F9
:1036D00000285FD186480068C08802285AD18448F3
:1036E00000680079002855D181480068007800F012
:1036F0007F0028B97E480068808808B97E4F77E04F
:103700007B480068007800F07F00012810D17849DC
:1037100009684879774909688A6900219047002833
:1037200066D173480068807A002861D0724F5FE0EC
:103730006F480068007800F07F00022858D16C487C
:103740000068407900F00F0669480068407900F091
:10375000700967480068407900F0800038B1674917
:1037600001EB8600D0F8000C00F0300806E0634959
:1037700001EB8600D0F8000C00F440586048007857
:10378000B04235D9B9F1000F32D1B8F1000F2FD0C6
:10379000594F2DE0082D07D155480068007800F0FA
:1037A0007F0028BB574F23E00A2D21D150480068E5
:1037B000007800F07F0001281AD14D480068807A17
:1037C000B0B14B480068408890B94948006800791A
:1037D00070B947480068C088012809D14449096880
:1037E0004879444909688A690021904700B9464FE1
:1037F00057B13F480068A0F812A03D4800688761B3
:103800000020B84700240FE0394A12685078394A3E
:103810001268116988470446032C05D109203449F0
:1038200009680872BDE8F88F31480068008A4FF6D1
:10383000FF71884204D109202D4909680872F1E717
:10384000022C03D02A480068008A20B908202849A1
:1038500009680872E6E726480068007800F08000F2
:10386000E0B323480068C088009021480068008ABF
:103870000099884204D91E4900980968088223E00B
:103880001B480068008A1A490968C98888421BDAFF
:1038900017480068008A1749096891F82C10884277
:1038A00003DA0020194908700EE011480068008A08
:1038B0001049096891F82C1090FBF1F201FB1200FD
:1038C00010B90120114908700A48006890F82C10BE
:1038D000074800688182FFF713FE07E0FFE7032037
:1038E00003490968087200030949088000BF99E785
:1038F000A4020020A8020020F59A00080050004011
:10390000E9030020799A0008C99A00089C02002067
:10391000B4020020704700003EB5044697A207CAD3
:103920008DE80700607831280BD1002096490860A7
:103930000120964908706B4695A296A196A00FF0BB
:10394000CDFB607830280BD101208F490860002022
:103950008E4908706B4691A28EA18FA00FF0BEFB1E
:10396000E07831280BD100208D49086001208D4975
:1039700008706B4686A28CA187A00FF0AFFBE078A1
:1039800030280BD101208649086000208549087045
:103990006B4682A284A180A00FF0A0FB6079312841
:1039A0000CD100207E490831086001207F49087051
:1039B0006B4677A27EA178A00FF090FB607930284B
:1039C0000CD1012076490831086000207749087041
:1039D0006B4672A276A170A00FF080FBE0793128CF
:1039E00006D101207349087000206749091F08604B
:1039F000E079302806D101206349091F08600020C2
:103A00006C490870607A312806D100206449091F8A
:103A10000860012068490870607A302806D10120CA
:103A20005F49091F0860002063490870E07A312867
:103A300006D100205A49091D086001205F4908701D
:103A4000E07A302806D101205549091D0860002080
:103A50005A490870607B312806D1002050490C314A
:103A60000860012056490870607B302806D101208B
:103A70004B490C310860002051490870E07B312827
:103A80000BD101204049083908604E4908706B4647
:103A90003FA24DA140A00FF021FBE07B30280BD1CD
:103AA0000020394908390860464908706B463BA236
:103AB00045A139A00FF012FB607C31280BD1012009
:103AC00031490C390860414908706B4630A240A169
:103AD00031A00FF003FB607C30280BD100202A4975
:103AE0000C390860394908706B462CA238A12AA00D
:103AF0000FF0F4FAE07C31280BD101202249103973
:103B00000860344908706B4621A233A122A00FF04F
:103B1000E5FAE07C30280BD100201B491039086001
:103B20002C4908706B461DA22BA11BA00FF0D6FAE2
:103B3000607D31280AD10120284908602849087091
:103B40006B4613A227A114A00FF0C8FA607D30289D
:103B50000AD1002021490860214908706B460FA254
:103B600020A10DA00FF0BAFAE07D312804D112F0A7
:103B7000EBFF01201C4908703EBD0000313A63662E
:103B8000672E696E6900000098012342BB00002087
:103B9000310000004C3100006374720030000000FE
:103BA0009C812342BC0000204C320000BD0000205C
:103BB0004C330000BE000020BF000020C0000020E9
:103BC000C1000020C200002056310000C3000020C8
:103BD00056320000C4000020563300009881214274
:103BE000C500002056340000B400002010B50024A9
:103BF000402000F05FF8802000F062F800282DD00F
:103C0000642008F059FE80211E4800F056FB012870
:103C100014D1642008F050FE80211A4800F04DFBBA
:103C200001281BD118491948006822F0B3FA002076
:103C30001749086017A0FCF783FC0FE080211148AA
:103C400000F03BFB50B9642008F036FE80210D489F
:103C500000F033FB10B901200D490860802000F00E
:103C600029F83CB14FF0805010490860BFF34F8FE6
:103C7000BFF36F8F01E0FFF7D1FA0D48006800280D
:103C8000F9D010BD001001409C000020200D002044
:103C9000A0812342455854495F4C696E6537202006
:103CA000696E746572727075740A000004ED00E04C
:103CB00018012442014908607047000014040140C3
:103CC000014600200022074B1B6803EA0102054B56
:103CD00014331B680B4013B10AB1012000E000202F
:103CE0007047000000040140002123498279002A26
:103CF0003AD00A46126803689A430B461A600A1DB6
:103D0000126803689A430B1D1A60027911440A680D
:103D100003681A430A60184A0832126803689A4313
:103D2000154B08331A601A1D126803689A43124B28
:103D30000C331A604279102A0ED11A1F12680368D8
:103D40001A430D4B08331A601A1D126803681A4390
:103D5000094B0C331A600DE00749427911440A6897
:103D600003681A430A6005E0027911440A6803688F
:103D70009A430A6070470000000401400320014993
:103D8000086070477804002051B18200A2F1C0425F
:103D9000126842F001038200A2F1C042136009E000
:103DA0008200A2F1C0421268034B1A408300A3F1C3
:103DB000C0431A6070470000FEFF0F00D0E90112F7
:103DC0001143C26811430269114342691143826978
:103DD0001143C2691143026A1143426A1143826A64
:103DE0001143C26A1143026B114302689200A2F1AF
:103DF000C0421160816808290BD101688900A1F1D6
:103E0000C041096841F0400201688900A1F1C04148
:103E10000A60416B0968426B526841EA0211426BC9
:103E2000926841EA0221426B928941EA0241426B67
:103E3000128A41EA0251426B127D41EA0261426BF1
:103E4000926911430268521C9200A2F1C0421160B3
:103E5000C16AB1F5804F1BD1816B0968826B5268D2
:103E600041EA0211826B926841EA0221826B128A56
:103E700041EA0251826B127D41EA0261826B9269D2
:103E8000114302689200A2F1C042C2F8041107E097
:103E90006FF0704201688900A1F1C041C1F80421AE
:103EA0007047000000B597B001214FF4F07003F0A7
:103EB0005FFB0121080203F02BFB4FF63370ADF8D6
:103EC000000018208DF8030003208DF802006946D9
:103ED000224800F067F94FF68370ADF8000069469C
:103EE0001F4800F05FF94FF23F00ADF8000069464F
:103EF0001C4800F057F940F23F40ADF80000694619
:103F0000194800F04FF9002001900290032003901F
:103F1000002004900590069007900420089000204F
:103F200009900A9010200B9000200C900E900D909C
:103F30000F9010904FF48050119000201290139029
:103F4000149001A81590169008A8FFF737FF0121DB
:103F50000420FFF719FF17B000BD00000014014056
:103F600000180140001C0140002001402DE9F041F3
:103F700007460D461646002409E055F82410384639
:103F8000FCF722FF10B92046BDE8F081641CB44262
:103F9000F3DB4FF0FF30F7E708B51020ADF8000075
:103FA00014208DF8030003208DF8020069460248B2
:103FB00000F0F8F808BD00000008014008B5102026
:103FC000ADF8000003208DF8020028208DF80300D2
:103FD0006946024800F0E6F808BD0000000801400C
:103FE000F8B500260020544908604FF47A7008F0B4
:103FF0003FFC01205149C1F8B0011E2008F038FCF7
:104000004D488038006800287ED1012502E001205B
:1040100008F02EFC48488038006820B9280005F1D7
:104020000101CDB2F3D1012502E0012008F020FC0E
:1040300041488038006820B1280005F10101CDB267
:10404000F3D1002409E003F09DFE0DF804001DF8F3
:1040500004003044C6B2601CC4B2042CF3DB03F08D
:1040600091FEB04267D19DF801209DF8001002EB4F
:10407000012023F0D9F832490860324930480068FD
:1040800022F0BCFF2E4908609DF803209DF8021025
:1040900002EB012023F0C8F82B4908604FF08E4155
:1040A0002948006823F0ECF90BD826492648006817
:1040B00022F0A4FF0746002123F013FA22490860EA
:1040C00006E020492048006822F098FF1E49086059
:1040D0001E491D48006823F0D3F905D200201C4971
:1040E000086001201B4908701B491748006823F02D
:1040F000C7F805D20120164908600020154908704C
:104100004FF08041104800E015E0006823F0B8F956
:1041100005D20120114908600020114908700021D2
:104120000948006823F0ACF805D200200B4908606C
:1041300001200B490870F8BDB00122420000224264
:10414000B000002000002041AC0000200000284208
:1041500094012342BE00002000002042A881234297
:10416000C100002030B500228B071C0F0F2303FA7B
:1041700004F20B4B8C1053F824309343084C8D10F1
:1041800044F8253023468C1053F824308C07240F34
:1041900000FA04F42343024C8D1044F8253030BD5E
:1041A000080001402DE9F0410246002500260020CC
:1041B00000230024002791F803C00CF00F0591F8AC
:1041C00003C00CF0100CBCF1000F03D091F802C03A
:1041D0004CEA050591F800C0BCF1000F31D014681D
:1041E00000202BE04FF0010C0CFA00F3B1F800C0F6
:1041F0000CEA03069E4220D183004FF00F0C0CFA0C
:1042000003F7BC4305FA03FC4CEA040491F803C02D
:10421000BCF1280F06D14FF0010C0CFA00FCC2F8DB
:1042200014C00AE091F803C0BCF1480F05D14FF06B
:10423000010C0CFA00FCC2F810C0401C0828D1D3B5
:104240001460B1F800C0BCF1FF0F34DD54680020E9
:104250002EE000F1080C4FF0010808FA0CF3B1F859
:1042600000C00CEA03069E4221D183004FF00F0CE0
:104270000CFA03F7BC4305FA03FC4CEA040491F87A
:1042800003C0BCF1280F05D100F1080C08FA0CF8A6
:10429000C2F8148091F803C0BCF1480F07D100F1B7
:1042A000080C4FF0010808FA0CF8C2F81080401C06
:1042B0000828CED35460BDE8F08102460020936800
:1042C0000B400BB1012000E00020704741617047B6
:1042D0000161704770B50324FF254E20144981F811
:1042E0008500452081F88A000020C1F88100C1F8CE
:1042F0008600012005F01AFAC0B100BF4FF4165035
:1043000006F082FA032005F0E1F94FF4164006F0BA
:104310007BFA084805F02AFA0546601EC4B201205F
:1043200005F004FA10B10DB1002CE7DC70BD0000FF
:10433000D21E0020A086010010B588B011A0006830
:10434000079011A207CA04AB07C3002414E0224659
:1043500010A102A8FCF700F904A81221CDE9001071
:1043600004EBC4000D4901EB40030DA202A90DA00E
:104370000EF06AFE601CC4B20A2CE8DB05F04EFAAF
:1043800008B010BD202E0000313A6366672E696EBA
:104390006900000069702578000000007C32002070
:1043A000300000004950000001460548006880B216
:1043B00000EBC100001D034A32F8100080B27047C4
:1043C000505C00400060004001460648006880B232
:1043D00000EBC100801D044A32F81000C0F3090050
:1043E00070470000505C0040006000400146044AF5
:1043F00002EB8100D0F8000C00F440507047000040
:104400000050004001460548006880B200EBC10042
:10441000034A32F8100080B270470000505C004040
:10442000006000400348008802490988491C014A8D
:1044300011807047F405002010B5044607230122BF
:1044400021460948FDF79EFF01210748FDF7FBFFC4
:1044500000BF02210448FDF707FF0028F9D00248F9
:10446000FDF7FEFE10BD0000002401402DE9F041E3
:1044700006460F46002400250AE03046FFF7DCFF21
:10448000A04203D93046FFF7D7FF0446681C85B227
:10449000B5F57A7FF1DBA0B2BDE8F0812DE9FC5FD4
:1044A00014210020FFF7E2FF0190019822F0D4FED2
:1044B000009022F009FD80464FF06632114B22F049
:1044C00005FC06460022104B22F068FA0446002242
:1044D0000E4B22F0FBFB824622F02EFA0C490860BC
:1044E00000210B48006822F0CBFE05D300210948CB
:1044F000006822F045FE02D1002005490860BDE8B1
:10450000FC9F000066660A400000B04000000E40BC
:1045100000010020FC000020014629B90120034AC7
:1045200012681082002070470148FCE7A4020020B6
:10453000E803002010B50F4B18681B1D1A681B1DDF
:1045400019680844A8B10C4CA070030A2371030C2D
:10455000A371030E2372A272130A2373130CA373A5
:10456000130E2374A1740B0A23750B0CA3750B0E89
:10457000237610BDE8F7FF1F900300202DE9FC5FB4
:1045800014210B20FFF772FF0190019822F064FEC6
:10459000009022F099FC80464FF06632114B22F0D9
:1045A00095FB06460022104B22F0F8F90446002243
:1045B0000E4B22F08BFB824622F0BEF90C490860BC
:1045C0000C490B48006822F05BFF05D30A490848F4
:1045D000006822F055FE02D2002005490860BDE8BF
:1045E000FC9F000066660A400000B0400080664004
:1045F000FC000020000016440000A04200BFFEE7BF
:10460000F0B5B3B006462EA0006832902DA207CABE
:104610002FAB07C332A9701CFCF7FCF90546002438
:104620001BE004EBC40102AA02EB41001221FCF7DB
:1046300057FB2846FCF76BFA074604EBC40102AAB5
:1046400002EB41003A462946FCF7CBFA32A900209A
:10465000FCF7E0F90546601CC4B2002DE1D100244E
:1046600025E004EBC40102AA02EB4100FCF74FFA7B
:10467000074604EBC40202AB03EB420104EBC402A5
:10468000134B03EB42003A46FCF7ABFA224611A16A
:104690006846FBF761FF04EBC40002A901EB40028E
:1046A0002FAB69460DA00EF019FD601CC4B20A2C98
:1046B000D7DBFFF741FE0AA0FBF742FF33B0F0BDA6
:1046C0002C2A0000313A6366672E696E690000008B
:1046D0007C320020697025780000000069700000BD
:1046E00070757473206F7665722E2E2E2E0A000060
:1046F0004CF6CC4001490860704700000030004093
:104700004AF6AA20014908607047000000300040C6
:10471000014948607047000000300040014988604E
:1047200070470000003000400149086070470000F9
:104730000030004010B518480068047A022C01D0FF
:10474000042C05D1FEF7DCFE13480068047A1CE057
:10475000062C19D110480068407805280ED10E4863
:104760000068007800F07F0040B90B490968C878FC
:1047700004F098FD09490968086A804708490968F2
:1047800088688047082400E00824034909680C72FF
:1047900002F044FE10BD0000A4020020B002002080
:1047A000A802002010B545F25550FFF7BDFF0620C6
:1047B000FFF7AEFF40F21960FFF7B0FFFFF7A0FF71
:1047C000FFF796FF01210802FEF7D0F910BD0000A7
:1047D0000021114A1170114A1160114A1160002024
:1047E00003E000210F4A1154401C4028F9D3002156
:1047F0000D4A11600D4A11600D4A1160002008E059
:1048000000210C4A42F830100B4902EBC002516003
:10481000401C0828F4DB704780000020780000204E
:104820007C000020C00D00208400002088000020B3
:104830008C000020000E0020400E00200146CA1708
:1048400001EB92729210A1EB82022AB9642291FBD1
:10485000F2F302FB131232B94FF4C87291FBF2F378
:1048600002FB13120AB9012070470020FCE7014641
:10487000CA1701EB92729210A1EB820292B96420E6
:1048800091FBF0F200FB121050B94FF4C87091FB8D
:10489000F0F200FB121008B9012070470020FCE77D
:1048A0000120FAE70020F8E72DE9F04107460C4621
:1048B0001546984600260FA0FBF742FE22462946E1
:1048C00013A0FFF753FB0746781C68B1002006468B
:1048D00007E055F826000EA1FCF776FA701CC0B26E
:1048E0000646A642F5DB02E00BA0BDE8F08100BF62
:1048F000FBE7000072656365697665202067657473
:1049000020627336342072657175657365740A00B0
:104910004C454431000000002F53544D33325F4C5E
:1049200045445F4F46465F424545505F4F46462EE1
:104930007368746D6C00000008B50121042002F05A
:1049400017FE0220ADF8000010208DF803000320B0
:104950008DF8020069460448FFF724FC0221024852
:10496000FFF7B4FC08BD00000008014009480068DA
:10497000012805D100200849086001200749087076
:104980000448006828B90120034908600020034951
:10499000087070471C012242A0812342C000002001
:1049A00070B590B0054619A000680F9018A207CA0C
:1049B0000CAB07C30FA9681CFCF72CF806460024B3
:1049C0000CE0694601EB04103146FCF771F80FA9C1
:1049D0000020FCF71FF80646601CC4B20EB1032C81
:1049E000EFDB0CAB6A460DA10DA00EF077FB0CAB14
:1049F00004AA0DA10AA00EF071FB0CAB08AA0CA131
:104A000007A00EF06BFB10B070BD00002C2A000058
:104A1000313A6366672E696E6900000069700000B4
:104A20006C6F63616C0000006D61736B00000000CF
:104A3000677700000548817A19B10521044A1160A1
:104A400002E00121024A1160704700004C31002051
:104A500078040020014611B1012904D101E00020B1
:104A600070470020FCE70120FAE72DE9F0470746F0
:104A700014461D46DDE9089817B1012F11D106E053
:104A8000002642462146484606F064FD0CE04FEA07
:104A90006822600A40EAC551484603F0EBFD06462D
:104AA00002E00120BDE8F08700BF0EB10120F9E768
:104AB0000020F7E72DE9F047074614461D46DDE9DB
:104AC000089817B1012F11D106E000264246214671
:104AD000484606F087FD0CE04FEA6822600A40EA8B
:104AE000C551484603F040FF064602E00120BDE8FC
:104AF000F08700BF0EB10120F9E70020F7E70000C2
:104B000070B50546002414480068007800F07F0066
:104B1000212810D1FE2D0ED10F480068408850B9D1
:104B20000D480068808830B90B480068C0880128AB
:104B300001D10A4C01E0022070BD0CB90220FBE754
:104B40000548006884610021034800684182002014
:104B5000A0470020F0E70000A4020020194500084B
:104B600010B504460249204604F09CFF10BD000029
:104B70004804002010B504460249204604F092FF84
:104B800010BD00004004002070B5054606480068CE
:104B9000C478052C01DD002070BD044800EBC40181
:104BA000284604F07FFFF7E7A4020020500400200D
:104BB0000246002901DD02207047002A01DD0220A3
:104BC000FAE70020F8E7000010B504461148006835
:104BD000007800F07F0021281AD1FF2C18D10D4851
:104BE00000684088A0B90B480068808880B90948EF
:104BF0000068C08860B90120FDF75AFF0220FDF768
:104C00003DFF05480549086000200549087010BDB2
:104C10000220FCE7A40200205553424378310020D3
:104C20007C03002010B50020314988723148C079DA
:104C3000314909684872002004F02CFB4FF40071E0
:104C4000002004F007FC2021002004F0E3FB1821E1
:104C5000002004F04FFB294890F82C10002004F0AD
:104C60005BFB5821002004F0B7FB0020FDF73AFF62
:104C7000002004F097FB0021012004F0EBFB9821B9
:104C8000012004F0A9FB2021012004F0C3FB002136
:104C9000012004F067FB0021022004F0DBFBD82197
:104CA000022004F027FB154890F82C10022004F095
:104CB00033FB4FF44051022004F054FB002102204A
:104CC00004F0A8FB0D4890F82C10002004F024FB01
:104CD000002004F067FB002004F0E4FA01200849FA
:104CE000086008480849086000200849087010BD9D
:104CF0004C3100209C290508A4020020EC03002070
:104D00007804002055534243783100207C03002072
:104D10007047704710B5FFF70DFC00200549096882
:104D2000887202F09FFB06F00BFA0020024908602F
:104D300010BD0000A40200207804002070B50346D6
:104D40000024002010E00E5C451C4D5D46EA05265F
:104D5000851C4D5D46EA0546C51C4D5D46EA056568
:104D600043F82450641C001D9042ECD370BD70B514
:104D7000034614460022002015E011F822501D546D
:104D800031F82250C5F30726451C5E5551F82250D4
:104D9000C5F30746851C5E5551F822502D0EC61CE2
:104DA0009D55521C001DA042E7D370BD2DE9FC416A
:104DB00004460E46002500272088C0F3C505382D7F
:104DC00002D2C5F1380001E0C5F17800074608229B
:104DD00021466846FFF7CBFF3A460849204600F0D7
:104DE0000BFC08226946204600F006FC102204F164
:104DF00008013046FFF7BBFFBDE8FC8188060020B4
:104E000000210160416005498160054AC260CA43D2
:104E10000261034AD24342617047000001234567A3
:104E200089ABCDEF2DE9F043C0B080468946D8F874
:104E30000040D8F80450D8F80860D8F80C70402228
:104E400049466846FFF77AFF05EA060027EA0501AA
:104E5000084300990844FE4908440444E00140EA3C
:104E600054642C4404EA050026EA0401084301992D
:104E70000844F84908440744380340EA17572744D0
:104E800007EA040025EA0701084302990844F249A9
:104E900008440644700440EAD6363E4406EA070059
:104EA00024EA0601084303990844EC4908440544F0
:104EB000A80540EA9525354405EA060027EA0501DC
:104EC000084304990844E64908440444E00140EAE0
:104ED00054642C4404EA050026EA040108430599B9
:104EE0000844E04908440744380340EA1757274478
:104EF00007EA040025EA0701084306990844DA494D
:104F000008440644700440EAD6363E4406EA0700E8
:104F100024EA0601084307990844D4490844054493
:104F2000A80540EA9525354405EA060027EA05016B
:104F3000084308990844CE4908440444E00140EA83
:104F400054642C4404EA050026EA04010843099944
:104F50000844C84908440744380340EA175727441F
:104F600007EA040025EA070108430A990844A0F566
:104F700024404F380644700440EAD6363E4406EAE0
:104F8000070024EA060108430B990844BA4908447B
:104F90000544A80540EA9525354405EA060027EAB8
:104FA000050108430C990844B44908440444E0014D
:104FB00040EA54642C4404EA050026EA040108434C
:104FC0000D990844AE4908440744380340EA17578E
:104FD000274407EA040025EA070108430E9908441C
:104FE000A84908440644700440EAD6363E4406EA1E
:104FF000070024EA060108430F990844A24908441F
:105000000544A80540EA9525354405EA070026EA47
:1050100007010843019908449C490844044460017D
:1050200040EAD4642C4404EA060025EA0601084359
:1050300006990844964908440744780240EAD7573D
:10504000274407EA050024EA050108430B990844B0
:10505000904908440644B00340EA96463E4406EAB6
:10506000040027EA04010843009908448A490844D7
:105070000544280540EA1535354405EA070026EAC7
:105080000701084305990844844908440444600121
:1050900040EAD4642C4404EA060025EA06010843E9
:1050A0000A9908447E4908440744780240EAD757E1
:1050B000274407EA050024EA050108430F9908443C
:1050C000784908440644B00340EA96463E4406EA5E
:1050D000040027EA0401084304990844724908447B
:1050E0000544280540EA1535354405EA070026EA57
:1050F00007010843099908446C49084404446001C5
:1051000040EAD4642C4404EA060025EA0601084378
:105110000E990844664908440744780240EAD75784
:10512000274407EA050024EA0501084303990844D7
:10513000604908440644B00340EA96463E4406EA05
:10514000040027EA04010843089908445A4908441E
:105150000544280540EA1535354405EA070026EAE6
:10516000070108430D990844544908440444600168
:1051700040EAD4642C4404EA060025EA0601084308
:10518000029908444E4908440744780240EAD75738
:10519000274407EA050024EA050108430799084463
:1051A000484908440644B00340EA96463E4406EAAD
:1051B000040027EA040108430C99084442490844C2
:1051C0000544280540EA1535354485EA060078404F
:1051D000059908443D4908440444200140EA1474F8
:1051E0002C4484EA05007040089908443849084472
:1051F0000744F80240EA5757274487EA040068400A
:105200000B990844334908440644300440EA1646E2
:105210003E4486EA070060400E9908442E4908443F
:105220000544E80540EA5525354485EA06007840FE
:1052300001990844294908440444200140EA1474AF
:105240002C4484EA0500704004990844244949E04C
:1052500078A46AD756B7C7E8DB702024EECEBDC16C
:10526000AF0F7CF52AC68747134630A8019546FD47
:10527000D8988069AFF7448BBED75C892211906BB8
:10528000937198FD8E4379A62108B44962251EF6D4
:1052900040B340C0515A5E26AAC7B6E95D102FD66A
:1052A0005314440281E6A1D8C8FBD3E7E6CDE1213F
:1052B000D60737C3870DD5F4ED145A4505E9E3A9A0
:1052C000F8A3EFFCD9026F678A4C2A8D4239FAFFA6
:1052D00081F6718722619D6D0C38E5FD44EABEA41C
:1052E000A9CFDE4B08440744F80240EA5757274449
:1052F00087EA0400684007990844A5490844064421
:10530000300440EA16463E4486EA070060400A99A7
:105310000844A04908440544E80540EA55253544B9
:1053200085EA060078400D9908449B4908440444E6
:10533000200140EA14742C4484EA0500704000996E
:105340000844964908440744F80240EA575727445E
:1053500087EA0400684003990844914908440644D8
:10536000300440EA16463E4486EA0700604006994B
:1053700008448C4908440544E80540EA552535446D
:1053800085EA06007840099908448749084404449E
:10539000200140EA14742C4484EA050070400C9902
:1053A0000844824908440744F80240EA5757274412
:1053B00087EA040068400F9908447D490844064480
:1053C000300440EA16463E4486EA070060400299EF
:1053D0000844784908440544E80540EA5525354421
:1053E00065EA070070400099084473490844044482
:1053F000A00140EA94642C4464EA060068400799DE
:1054000008446E4908440744B80240EA97572744C5
:1054100067EA050060400E9908446949084406445B
:10542000F00340EA56463E4466EA04007840059997
:105430000844644908440544680540EAD5253544D4
:1054400065EA070070400C9908445F490844044429
:10545000A00140EA94642C4464EA06006840039981
:1054600008445A4908440744B80240EA9757274479
:1054700067EA050060400A99084455490844064413
:10548000F00340EA56463E4466EA0400784001993B
:105490000844504908440544680540EAD525354488
:1054A00065EA07007040089908444B4908440444E1
:1054B000A00140EA94642C4464EA060068400F9915
:1054C0000844464908440744B80240EA975727442D
:1054D00067EA0500604006990844414908440644CB
:1054E000F00340EA56463E4466EA040078400D99CF
:1054F00008443C4908440544680540EAD52535443C
:1055000065EA070070400499084437490844044498
:10551000A00140EA94642C4464EA060068400B99B8
:105520000844324908440744B80240EA97572744E0
:1055300067EA05006040029908442D490844064482
:10554000F00340EA56463E4466EA04007840099972
:105550000844284908440544680540EAD5253544EF
:10556000D8F800002044C8F80000D8F80400284407
:10557000C8F80400D8F808003044C8F80800D8F883
:105580000C003844C8F80C0040B0BDE8F0830000BF
:10559000604BBBF670BCBFBEC67E9B28FA27A1EA53
:1055A0008530EFD4051D880439D0D4D9E599DBE6E0
:1055B000F87CA21F6556ACC4442229F497FF2A4305
:1055C000A72394AB39A093FCC3595B6592CC0C8F95
:1055D0007DF4EFFFD15D84854F7EA86FE0E62CFE61
:1055E000144301A3A111084E827E53F735F23ABD50
:1055F000BBD2D72A91D386EB2DE9F04704460F465C
:1056000015460026B046B1462088C0F3C508C8F14B
:105610004009206800EBC50020602068B0EBC50F92
:1056200002D26068401C6060606800EB557060608A
:105630004D451CD304F1180101EB08004A463946D8
:10564000FBF7CFFA04F1180104F10800FFF7EAFBB9
:105650004E4605E0B91904F10800FFF7E3FB4036B8
:1056600006F14000A842F5D94FF0000800E00026FE
:10567000AA1BB91904F1180303EB0800FBF7B1FAF0
:10568000BDE8F08730B5D1B00025C82458222449A0
:1056900002A8FBF7EBFA23480068000E00902148AF
:1056A0000068C0F307431F480068C0F307221EA12B
:1056B00018A8FAF751FF18A805907820ADF8200037
:1056C00002AA21461FA800F0E1FA0546C822294691
:1056D0001FA814F033F8002803DA6FF0010051B06E
:1056E00030BD164A21461FA800F066FA022802D0F3
:1056F0006FF00300F3E723461FAA1DA91EA800F0C0
:1057000055F8012802D19DF8740010B16FF0040023
:10571000E5E79DF87800012800D1E0E70020DEE70A
:10572000FC2B0508F0F7FF1F5353492E5343253038
:10573000325825303258253032580A007D0501088C
:105740002DE9FE4F04460D4616461F46DDF830A0F3
:105750000020029001978046814601A813F0B4FE14
:105760008DF808000298C0F3C00028700298C0F3BA
:10577000031020706946019800F0E0F98146019914
:1057800008440190DDE9001000EB01080198A8EB46
:105790000000022800DA06E001A813F09CFE308029
:1057A0004FF0010900BF4846BDE8FE8F2DE9FF47D5
:1057B00004460D461646994600200390029600279F
:1057C0008046009002A813F07FFE8DF80C0003982D
:1057D000C0F30310022800D01FE001A9029800F0D6
:1057E000ADF98046029908440290DDE9011047189E
:1057F0000298381A022800DA0FE002A813F064FEBB
:105800008DF800000098C0F3C010207002A813F0BB
:105810005BFE28704FF0010800BF404604B0BDE8B1
:10582000F0872DE9FF5F06460C4617469846DDE9EE
:105830000FABDDF8389000200390119802900025FE
:1058400000200190009002A813F03EFE8DF80C009D
:105850000398C0F30310032800D032E00398C0F38C
:10586000C00030700398C0F341002060039800F03E
:10587000010038706946029800F060F901900299C1
:10588000084402900099029845182A4602A9484601
:1058900013F02EFE10B10298281A00D511E02068EE
:1058A000002804DD02A813F016FEA8F800000298F4
:1058B000281ACBF800000298CAF8000001200190D5
:1058C00000BF019804B0BDE8F09F2DE9FE4F0546EA
:1058D0000E4614461F46DDE90C9B00200290CDF8D1
:1058E00004908046824601A813F0EEFD8DF8080072
:1058F0000298C0F30310092800D02CE069460198F3
:1059000000F01CF98246019908440190DDE900107D
:1059100000EB01080198A8EB0000022800DA1AE069
:1059200001A813F0D8FD2880002020600DE0206839
:10593000B04202DD4FF0FF3A0DE001A813F0C4FDC4
:105940002268511C216047F8220001984045EED39F
:105950004FF0010A00BF5046BDE8FE8FF0B58DB094
:10596000054618A000680C9017A207CA09AB07C328
:105970000CA9681CFBF74EF8064600240CE001A9B0
:1059800001EB04103146FBF793F80CA90020FBF75C
:1059900041F80646601CC4B20EB1022CEFDB09AB25
:1059A00001AA0CA10CA00DF099FB05A8FAF7A0FF25
:1059B000074609AB3A460AA107A00DF07CFB0DB0E3
:1059C000F0BD00002C2A0000313A6366672E696E34
:1059D00069000000697000006D71747400000000BF
:1059E000706F7274000000002DE9F04FBDB00546E5
:1059F0000C4616461F46DDF818814FF000094FF09F
:105A0000C80ACB4600200790089009900795012C02
:105A100001D0022C03D1FEF705FD834602E00024ED
:105A20000026A346CDE9057807A807C82346CDE997
:105A3000006BCDE903120290002251460BA800F042
:105A400035FA814624B1012C0BD0022C46D119E045
:105A5000002249460BA813F071FE00203DB0BDE8BE
:105A6000F08F642249460BA813F068FE05226421DA
:105A7000042005F071FE002802DA6FF00200EDE765
:105A80000120EBE7642249460BA813F057FE0522DC
:105A90006421104605F060FE002802DA6FF0020073
:105AA000DCE7002251460BA80A9B00F068FA814609
:105AB000642249460BA813F041FE002802DA6FF079
:105AC0000100CBE705226421104605F045FE0028C1
:105AD00002DA6FF00600C1E70220BFE76FF00700AF
